:020000040800F2
:1000000040220020D5020008EB350008B534000876
:10001000E9350008451F0008FD3A0008000000000F
:100020000000000000000000000000003D02000889
:10003000471F00080000000081020008F535000895
:10004000EF020008EF020008EF020008EF020008CC
:10005000EF020008EF020008EF020008EF020008BC
:10006000EF020008EF020008EF020008EF020008AC
:10007000EF020008EF020008EF020008EF0200089C
:10008000EF020008EF020008EF020008EF0200088C
:10009000EF020008EF020008EF020008EF0200087C
:1000A000EF02000881360008EF020008EF020008A6
:1000B000EF020008EF020008EF020008EF0200085C
:1000C000EF020008EF020008EF020008EF0200084C
:1000D000EF020008E53A0008EF020008F13A0008D4
:1000E000EF020008EF020008EF02000800F002F83B
:1000F00000F094F80AA090E8000C82448344AAF12E
:100100000107DA4501D100F089F8AFF2090EBAE82B
:100110000F0013F0010F18BFFB1A43F0010318473B
:1001200084690000A4690000103A24BF78C878C12F
:10013000FAD8520724BF30C830C144BF04680C60ED
:10014000704700000023002400250026103A28BF35
:1001500078C1FBD8520728BF30C148BF0B60704739
:100160006E2900F0A084702900F0ED81662906F068
:100170000183652906F0FE82672906F0FB8261296A
:1001800006F0FA8203681B0A28BF41F08001692942
:1001900000F05E81642900F05B81752900F05881D0
:1001A0006F2900F07E87782900F0B981E92900F0F5
:1001B0001987E42900F01687F52900F01387EF2945
:1001C00000F07B87F82900F0B8810368DB0928BFBD
:1001D00041F08001632901F0AF81732901F0B481FE
:1001E000E32901F0BF81F32901F0C48100207047A9
:1001F0001FB59DE8030000F081FB00F06DFF0400D7
:100200000020002105F03CFC401C60600020002123
:1002100005F04CFCE0601FBD10B510BD01F048FAC0
:100220001146FFF7E5FF03F0BDFD01F066FA03B4E8
:10023000FFF7F2FF03BC01F097FA0000224B1968A8
:100240000868B0E8F00F80F30988BFF36F8F4FF0B4
:10025000000080F311884EF00D0E70470000000082
:1002600006480068006880F3088862B661B6BFF38C
:100270004F8FBFF36F8F00DF00BF00BF08ED00E0BE
:10028000EFF30980BFF36F8F0F4B1A6820E9F00F6F
:10029000106008B54FF0500080F31188BFF34F8F06
:1002A000BFF36F8F05F04AFA4FF0000080F311881A
:1002B000BDE8084019680868B0E8F00F80F30988C5
:1002C000BFF36F8F704700BF48000020EFF3058039
:1002D000704700000948804709480047FEE7FEE7ED
:1002E000FEE7FEE7FEE7FEE7FEE7FEE7FEE7FEE7E6
:1002F00004480549054A064B704700007F36000850
:10030000ED0000084012002040220020401A00208A
:10031000401A002070B5064600F0D4FA056806F1D0
:100320000B0020F00704B4429CBF002070BD2B4698
:100330006A68BAB11068A04210D304F1080188427B
:100340003CBF5068586007D351681019416011686C
:10035000091B016058601460101D70BD134652687F
:10036000002AE7D12146284600F0B4FA0028DED161
:1003700070BD70B50446051F00F0A4FA0068002C9B
:1003800014BF446870BD002C18BFAC423CBF20466F
:100390006468F8D301680A18AA4218BF456003D1FF
:1003A0002A6805461144016028684119A1421CBF12
:1003B0006C6070BD6168696021680844286070BD28
:1003C00010B5044600F076FA0068005DC00602D55C
:1003D00004F1200010BD204610BD00001CB50C46E5
:1003E000064B7B4469460090204600F084FD04469D
:1003F0000020694600F092FD20461CBD370B00002E
:1004000070B5044685690068C10601D5302600E054
:100410002026C00707D070BDD4E90121304690479F
:10042000206A401C20626D1EF6D570BD70B5044672
:1004300085690078C00707D170BDD4E9012120206B
:100440009047206A401C20626D1EF6D570BD0000EA
:100450002DE9F0410646002410687529314616A59D
:1004600010D000F08CFA002802DA404213A507E011
:1004700031688A0701D512A502E0490704D511A504
:10048000012401E000F084FA00210A2206F1240789
:1004900009E0B0FBF2FCB0FBF2F302FB1C003030D1
:1004A00078541846491C0028F3D123462A46304682
:1004B000BDE8F04100F09EBA000000002D000000F1
:1004C0002B00000020000000F0B40D460188090553
:1004D00002D5214C7C4402E01F4C7C440E340021A8
:1004E00000F1240608E002F00F071209E75D42EA76
:1004F00003721B097754491C52EA0307F3D10278AF
:100500000023120704D5702D06D009B1022311343F
:100510002246F0BC00F06EBA01231034F8E770B543
:1005200004460D462146106800F032FA024629467C
:100530002046BDE870400023C6E7D21D22F0070325
:10054000D3E90023C0E70368126843F02003036087
:100550000823C3610023B7E71A6400002DE9F05FA8
:10056000894604464FF0000ADFF874B1FB44C0F836
:1005700020A02046E1688847002874D0252806D0AE
:10058000D4E901219047206A401C2062F1E700264F
:100590005F462046E16888472028054607DB312D65
:1005A00005D2781910F8200C08B10643F1E7B0071E
:1005B00001D526F00406C4F81CA00027C4F818A032
:1005C0002A2D09D0284603F033FB38B304EB870803
:1005D000303DC8F8185019E059F8041B204604EBC8
:1005E00087029161E1688847012F054618D1E069CB
:1005F000002820DA26F020061DE0D8F8180000EBCD
:10060000800005EB40003038C8F818002046E1684B
:100610008847054603F00CFB0028EED1012F0AD0D5
:100620002E2D08D12046E16888477F1C0546022F01
:1006300046F02006C4DBA069002803DA404246F0F9
:100640000106A061F00701D026F010066C2D0BD03A
:10065000682D09D04C2D39D06A2D35D0742D35D068
:100660007A2D33D016E038E0E1682F4620468847DF
:10067000B842054609D16C2F26D04FF48060E1685E
:10068000064320468847054604E06C2F1AD04FF4F5
:10069000807006430DB3A5F14100192802D820351A
:1006A00046F400664A462946204626604E46FFF735
:1006B00057FD80B101280BD0F61D26F0070000F190
:1006C000080956E74020E4E78020D8E70020D6E775
:1006D00006F104094DE7284652E7206ABDE8F09F7D
:1006E000AA63000040EA010370B59B072ED14FF0CA
:1006F0000136042A2AD308C810C99D1B9D43121F26
:1007000015EAC61517D0D8B2E1B2401A50EA056111
:1007100010D198B2A1B2401A50EA05410AD123F093
:100720007F4024F07F41401A50EA052102D1180E83
:10073000A0EB146070BDA342DBD018BA21BA884286
:1007400001D9012070BD4FF0FF3070BD0AB9002003
:1007500070BD10F8013B11F8014B63B1A3420AD1FF
:10076000521E08D010F8013B11F8014B1BB1A342F7
:1007700001D1521EEDD1181B70BD10B5203AC0F04A
:100780000B80B1E81850203AA0E81850B1E8185092
:10079000A0E81850BFF4F5AF5FEA027C24BFB1E8CF
:1007A0001850A0E8185044BF18C918C0BDE8104040
:1007B0005FEA827C24BF51F8043B40F8043B08BF49
:1007C0007047D20728BF31F8023B48BF11F8012B10
:1007D00028BF20F8023B48BF00F8012B70474FF0BC
:1007E000000200B5134694469646203922BFA0E881
:1007F0000C50A0E80C50B1F12001BFF4F7AF09078D
:1008000028BFA0E80C5048BF0CC05DF804EB89007D
:1008100028BF40F8042B08BF704748BF20F8022BC0
:1008200011F0804F18BF00F8012B70474FF0013CCA
:1008300050F8042B51F8043B9A4221D1A2EB0C034F
:10084000934313EACC1317D150F8042B51F8043B0F
:100850009A4215D1A2EB0C03934313EACC130BD1AC
:1008600050F8042B51F8043B9A4209D1A2EB0C0337
:10087000934313EACC13DBD04FF00000704700BF66
:10088000D01A01BAB1FA81F101F0180122FA01F08F
:10089000CB40C1F12001DBB2C0B2C01A2CFA01F387
:1008A000D11A914311EAC311E6D1704770477047DE
:1008B0007047000010B500F00FFC001D10BD00BF18
:1008C000C151000000487047E41100207047704794
:1008D0007047704738B504460A4600206946AFF3B2
:1008E0000080002808BF38BD02460099204600F06D
:1008F000FBFB012038BD012000F0D2BEF8B5AFF3FC
:100900000080054600200C46102000BF0646A819AE
:10091000A0420DD9324669460020AFF3008007009F
:1009200008BF00F0BDFE0098A04218BF0546C419DC
:10093000FFF7C8FF05600746F01D20F007004619C5
:10094000284600F00AF8B44208BFF8BDA21B3146A1
:100950003868BDE8F84000F0C7BB00210160C0E97D
:10096000011070471020704710B500F0B9FB006807
:1009700010BD10B5044600F0B3FB046010BD09685B
:100980004A0501D540B27047C905FCD500B2704791
:1009900009684A0501D5C0B27047C905FCD580B2C7
:1009A000704770B50C460546012A05D028788006A8
:1009B00000D5EA69002302E0012305E05B1C9342B5
:1009C00002D2E05C0028F9D1A869E618C01AA86133
:1009D000286A184428622846FFF712FD04E0D5E98A
:1009E000012114F8010B9047B442F8D32846FFF7D1
:1009F0001DFD70BD2DE9F0470D469946924604460F
:100A000000F124080168880604D5E06921F010018E
:100A1000216000E00120A84201DD471B00E0002723
:100A2000A1697A1902EB0900081AA0612078C006B2
:100A300002D42046FFF7E4FC002608E0D4E90121B7
:100A40001AF806009047206A401C761C20624E452A
:100A5000F4DB2078C0060AD52046FFF7D1FC06E07B
:100A6000D4E9012130209047206A401C2062381EC2
:100A7000A7F10107F4DC07E0D4E9012118F805002B
:100A80009047206A401C2062281EA5F10105F3DC76
:100A90002046FFF7CBFC2078000602D50220BDE8F7
:100AA000F0870120FBE711680268006A530501D551
:100AB00008700AE0D30501D5088006E0130603D5C7
:100AC000C217C1E9000200E00860012070477047CA
:100AD0002DE9FF4F0C461E464FF0FF378BB0D2E991
:100AE0000001DDF860800A908A46C1F30A5505B915
:100AF0003D46002108464FF00000BAF1000F00F417
:100B0000400005DA00EB80004FF4400101EA50009C
:100B10004FEA9059B9F1010F00DDB9460A9850EA41
:100B20004A000ED044F61050A5F2FF3545432F146D
:100B3000B8F1000F1ED07542291E1EDDC9F100025A
:100B40001CE0B8F1010F4FF0000001D0302103E0AC
:100B5000F24305E02154401CB042FBDB304600224A
:100B6000002121540B99C1F80880C1E900200FB081
:100B7000BDE8F08FBD1B6D1CDEE74A4600DA694216
:100B800006A800F0FBFC06AB93E8070003AB83E884
:100B9000070050460A9900F00DFE8DE80700A0F509
:100BA00000501F3800900398002D0ADD42F21F010B
:100BB0004A460844002303A90390684601F076F8EA
:100BC00009E0A0F500504A461F38002303A903900E
:100BD000684601F080F88DE807000004000C03D09F
:100BE0004FF0FF30410800E01046B8F1000F03D08D
:100BF0000022009215461EE0751E05D400F08EFA04
:100C0000303262556D1EF9D5B3460122084302D039
:100C100000227F1C04E02078302801D100227F1EB2
:100C2000002A099784D01DE0112D07DA00F076FA2A
:100C3000303262556D1C50EA0102F5D1084302D0F2
:100C40000098C8B10EE00021681E05E0235C625CDC
:100C500063542254401E491C8142F7DBAB46A81B5B
:100C6000401E0990002004F80B000B98099AC0F868
:100C70000880C0E9002B7AE711264FF0000857E7FB
:100C80002DE9F04F88460446D21D22F0070191B0AD
:100C9000D1E90001CDE90A0102F031FF02460B98CB
:100CA000C00F01D02D2007E02068810701D52B203F
:100CB00002E0202101EAC000032A099001D0072A9E
:100CC00005DB03464146204600F0ECFB0BE12078B3
:100CD000800601D5E06900E00620B8F1650F814685
:100CE00006D0B8F1660F18D0B8F1670F70D131E0B7
:100CF0000020B9F1110F009001DB112301E009F18F
:100D000001030AAA01A90CA8FFF7E2FEDDE90C70B5
:100D1000002609F10105834647E001204B4600907B
:100D20004FF000470AAA01A90CA8FFF7D1FEDDE9A0
:100D30000DB00C995D46002610B909F101000D189F
:100D4000B9EB050003D4C0F1FF3609F10105A5EBAD
:100D500009002BE0B9F1010F01DA4FF00109002081
:100D6000B9F1110F0090484601DD112300E0034660
:100D70000AAA01A90CA8FFF7ABFEDDE90C704D46ED
:100D800000268346207800070AD4AB4500DA5D468A
:100D900001A8012D04DD411911F8011C302907D0EB
:100DA0004F4502DA17F1040F04DA012082460FE002
:100DB0006D1EEEE7002F02DCED1B3E4403E0781CC5
:100DC000A84200DD7D1CB81B00F1010A4FF000476E
:100DD0002078000703D4AA4501DB4FF0FF3A002139
:100DE000B7F1004F0DF143088DF8431024D00220D5
:100DF0002B23002F01DA7F422D230A21021EA0F1AE
:100E0000010000DC5FB197FBF1FC97FBF1F201FB05
:100E10001C7C17460CF1300C08F801CDEEE7A8F168
:100E2000010003702188090501D5452100E06521F5
:100E3000A0F1010800F8011C09980FA9A1EB08070F
:100E4000FF1D00B10120411901EBEA70A16938448E
:100E5000081A401EA0612078C00602D42046FFF781
:100E6000CFFA099828B1D4E901219047206A401CA3
:100E700020622078C00622D52046FFF7C1FA1EE086
:100E8000002E04DBB34502DD01A8805D00E03020C8
:100E9000D4E901219047206A401C2062761CAAF107
:100EA00001005FEA000A0AD100F016F9C068016883
:100EB000405CD4E901219047206A401C2062281E32
:100EC000A5F10105DCDC07E0D4E9012118F8010BEC
:100ED0009047206A401C2062381EA7F10107F3DC0E
:100EE0002046FFF7A3FA032011B041E601694A1C2E
:100EF00002610878704700B58FB0CDE9013100215B
:100F0000059105497944CDE9031011466846FFF77C
:100F100025FB0FB000BD0000E5FFFFFF0A6802F8E7
:100F2000010B0A60704700002DE9FF5F15468A46F5
:100F30000446DFF8AC80F8440027D8E900103E46AC
:100F4000CDE9001010E03AF816106A4602A800F049
:100F500087FB411C07D02178890603D5E26939183F
:100F600091420DD80744761C2078800602D5E069AE
:100F7000B84205DDAE42E6DB3AF816000028E2D1C1
:100F8000A069C01BA0612046FFF73AFAD8E900101B
:100F9000CDE90010002017E03AF818106A4602A8C0
:100FA00000F05EFBB0F1FF3F81460BD000250DF154
:100FB000080B05E0D4E901211BF8050090476D1CE2
:100FC0004D45F7D308F10100B0428046E4DB206ACA
:100FD000384420622046FFF729FABDE8FF9F000051
:100FE0007E5A00002DE9F0418046D21D22F0070212
:100FF0000025D2E90002F52915A614D0011E72F1D0
:10100000000106DA0023D0EB030063EB020211A615
:1010100008E0D8F800108B0701D50FA602E04907B9
:1010200001D50EA601251146002408F1240704E08D
:1010300000F074F830323A55641C50EA0102F7D1DE
:101040002B46324621464046BDE8F041FFF7D2BC70
:10105000000000002D0000002B0000002000000018
:1010600030B4002100F1240408E002F00705D208A2
:10107000303542EA4372DB086554491C52EA0305E5
:10108000F3D10468002310A2250707D5A40600D4D5
:1010900021B1C46901230DA2641EC46130BCFFF7F5
:1010A000A9BC10B5044621461068FFF771FC024642
:1010B0002046BDE810400023D2E7D21D22F00701F0
:1010C000D1E90023CCE70000000000003000000060
:1010D00000487047DC11002000487047FC110020D8
:1010E00000487047DC110020034640688C46002809
:1010F00018BF88423CBF03464068F8D318681844BC
:10110000884207D00CF1030020F00700001D411AAF
:10111000521A0146081D0A60FFF72BB930B5B0F12D
:101120000A024FEA900E71F100034EEA817EB0EBA5
:101130000E0061EB91014FEA101E4EEA017E10EBAA
:101140000E0041EB11114FEA102E4EEA016E10EB2A
:101150000E0041EB11214FEA104E4EEA014E10EB0A
:101160000E0041EB1141401841F100014FEAD0005F
:1011700040EA41704FEAD10110EB80054FEA81044B
:1011800044EA907444EB01046D1944EB0404521BCF
:10119000A3414FF0000348BF0A3200D530BD401CC8
:1011A00041F1000130BD00002DE9F04F04460D462D
:1011B000D21D22F0070089B0D0E900974846394691
:1011C00002F09DFC0246F80F01D02D2307E02068B5
:1011D000810701D52B2302E0202101EAC0038DF80D
:1011E00020300BB1012000E00020032A824601D00C
:1011F000072A04DB2946204600F054F93FE1207815
:10120000800601D40D2500E0E569C7F30A560D2DCF
:1012100049DA00214FEA175B08464FF00000002F23
:1012200000F4400007DA00EB80004FF4400100EBCF
:10123000D07001EA60008115012901DD4FF0FF3116
:1012400000224FEA850CBCF1180F06D31346ACF10F
:1012500018004FF08052C24003E04FF4801323FA8D
:101260000CF30CF10C0CBCF1200F04D3ACF1200CEE
:1012700009FA0CF001E007FA0CF000294FF00048E1
:1012800001DD18B90FE00ED140450CD319EB02096E
:101290005F4121B9404502D19F4329EA0209BBEBD6
:1012A000175F00D0761C2088000502D57B48784463
:1012B00002E07A487844193808AA302302F80A3044
:1012C000037C0AF10101002E0AF1020A53546A4616
:1012D00002DC4FF0300101E04FF031014FF0010826
:1012E0008DF8001002D0A6F2FF3603E059EA47015C
:1012F00000D06B4E002D02DC2178090704D54FF099
:1013000002082E218DF80110C44600210BE0C7F31E
:1013100003433F01C35C491C6D1E02F808300529D8
:1013200008F1010801DA002DF1DC00210CE000EBEE
:101330001973491C1B786D1E082902F808304FEA02
:10134000091908F1010801DA002DF0DC21688B068B
:1013500002D516E0A8F10108E04505DD02EB08031F
:1013600013F8013C302BF5D0B8F1000F09DD02EB8A
:10137000080313F8013C2E2B03D1090701D4A8F16F
:101380000108002D05DD3E2102F808106D1E08F150
:101390000108407C002E02F8080008F1010804DA78
:1013A0002D20764202F8080002E02B2002F8080007
:1013B0000A214FF47A70864208F101080BDB96FB94
:1013C000F0F3303302F8083096FBF0F308F101082F
:1013D00000FB136601E0642E0CDB642096FBF0F347
:1013E000303302F8083096FBF0F308F1010800FBF7
:1013F000136601E00A2E06DB96FBF1F0303002F8AE
:10140000080008F1010896FBF1F001FB1060303094
:1014100002F80800A16908F1010808EB050202EBD7
:101420000A00081AA0612078C00602D42046FEF700
:10143000E7FF216A08AE01EB0A00206204E0D4E96C
:10144000012116F8010B9047BAF1010AF7D2207872
:10145000C00602D52046FEF7D3FF6E4609E016F817
:10146000010B3E280FD0D4E901219047206A401C8F
:101470002062B8F10108F2D22046FEF7D7FF09B08A
:101480000320BDE8F08F206A2844206203E0D4E9FD
:101490000121302090476D1EEBD3F8E7295700005B
:1014A00002FCFFFF2DE9F0411F46044603260168B8
:1014B000072A01F4006004DB08B116A505E016A5B3
:1014C00003E008B115A500E015A521F0100020608B
:1014D000A069C01EA0610FB1401EA0612046FEF7AA
:1014E0008FFF4FB1D4E9012138469047206A401C54
:1014F0002062C01C206206E0206AFAE7D4E90121DC
:1015000015F8010B9047761EF8D22046FEF78EFFA5
:10151000BDE8F0814E414E006E616E00494E4600BE
:10152000696E660010B5436913B1AFF3008001E046
:10153000FFF737FA012010BD127800F124010A707C
:1015400000224A700122EDE711684FF0FF32E9E70F
:1015500010B5436913B1AFF3008001E0FFF7E4FC7D
:10156000012010BD128800F1240182840022C2846F
:101570000122EDE711684FF0FF32E9E72DE9F0476E
:10158000814616468AB0354878440DC88DE80D006E
:1015900032487844801C03AC0DC884E80D0041F645
:1015A0009B300844372190FBF1F290FBF1F5A5F157
:1015B000800501FB12041B3C02D56442012000E0BF
:1015C0000020DFF898A080460027FA44AAF1BE0A5E
:1015D0000EE0E0070AD03246684607EB47010123D8
:1015E0000AEB810100F077FB8DE8070064107F1C97
:1015F000002CEED1194F7F44AE3F19E0E80715D01B
:1016000007EB04100DF1180A90E80E008AE80E00AE
:10161000C068F04201D1981908903246012306A90A
:1016200003A800F058FB03AB83E807006D10641CAF
:10163000002DE3D14FF0010332466946B8F1000FA7
:1016400003A802D000F032FB01E000F044FBC9E93E
:101650000001C9F808200AB0BDE8F087E054000096
:1016600070B516460C460546FFF724F9036893F853
:101670000101012806D0FF2C0FD8185D68B10120A8
:101680002C7070BDD3F807013246214603F20713D0
:1016900003442846BDE8704018474FF0FF3070BD46
:1016A00010B500F039F8BDE8104000F02FB87047D1
:1016B0007546FFF70DFDAE4605006946534620F01E
:1016C0000700854618B020B5FEF712FEBDE82040A1
:1016D0004FF000064FF000074FF000084FF0000BEE
:1016E00021F00701AC46ACE8C009ACE8C009ACE8A1
:1016F000C009ACE8C0098D46704710B50446AFF389
:1017000000802046BDE81040FEF791BD002801D0C2
:1017100000F02AB87047000010B5012805D000215C
:1017200003A000F027F8012010BD09A1F8E7000090
:1017300053494752544D454D3A204F7574206F66BA
:101740002068656170206D656D6F72790000000022
:101750003A2048656170206D656D6F727920636F06
:10176000727275707465640001491820ABBEFEE7A3
:101770002600020070B505460C460A2000E06D1CEC
:1017800000F011F835B128780028F8D102E0641C87
:1017900000F009F814B120780028F8D1BDE87040B5
:1017A0000A20AFF3008008B569468DF800000320D9
:1017B000ABBE08BD5FEA400C08BF91F0000F4FEAD6
:1017C0008C234FEAC12243EA51514FEA1C5018BF03
:1017D00000F5F0404FEA300018BF41F000415FEAE9
:1017E0006C5C00F02980BCF1FF3F08BF40F08040F6
:1017F0007047130C06BF12044FF0100C4FF0000C92
:10180000130E04BF12020CF1080C130F04BF1201D7
:101810000CF1040C930F04BF92000CF1020CD30FD7
:1018200004BF52000CF1010C11464FF00002A0F170
:101830001F00A0EB0C00704711F0004F08BF70476D
:1018400031F000413FF4D5AF0B0C06BF09044FF057
:10185000100C4FF0000C0B0E04BF09020CF1080C29
:101860000B0F04BF09010CF1040C8B0F04BF89009E
:101870000CF1020CCB0F04BF49000CF1010CCCF1B0
:101880002003A0EB0C0022FA03F302FA0CF241EA67
:10189000030100F10100704720F07F4C80EA030053
:1018A00023F07F47ACEB070303F57C5300F00040C7
:1018B00003F1FF032DE980494FEA154B09B44FEAC4
:1018C000144325EA0B4E24EA03480FF2042606EBE4
:1018D000132749083E785FEA320203FB0667C7F523
:1018E000000707FB06F64FEA54374FEAD64606F1E3
:1018F000020607FB066CCCF1005C4FEA1C472CEAA1
:10190000074C07FB06F40CFB06F504EB15464FEA03
:10191000961634BF00204FF000404FEAD13706FB47
:1019200007FC4FEA1C4C0CFB0BF7D21B03FB0CF71C
:1019300061EB07010CFB0EF7B0EB074072EB1742AF
:101940000CFB08F734BFA2EB0742B2EB074261EB96
:1019500017414FEA0C444FEA910706FB07FC4FEA98
:101960001C4C0CFB0BF7B0EBC74072EB573203FB80
:101970000CF734BFA2EBC742B2EBC74261EB573161
:101980000CFB0EF7B0EBC70072EB57720CFB08F7BD
:1019900034BFA2EBC702B2EBC70261EB5771039FE2
:1019A0004FEA816141EA921104EBCC044FEAD1374E
:1019B0004FEA826206FB07FC42EA90124FEA80601F
:1019C0004FEA1C4C0CFB0BF7D21B03FB0CF761EB33
:1019D00007010CFB0EF7B0EB074072EB17420CFB54
:1019E00008F734BFA2EB0742B2EB074261EB1741A5
:1019F0004FEA8C554FEA910704EB9C2406FB07FC49
:101A00004FEA1C4C0CFB0BF7B0EBC74072EB5732A4
:101A100003FB0CF734BFA2EBC742B2EBC74261EB4A
:101A200057310CFB0EF7B0EBC70072EB57720CFB93
:101A300008F734BFA2EBC702B2EBC70261EB5771E4
:101A400015EB4C254FEA816141EA92114FEA82621F
:101A50004FEAD13742EA901206FB07FC44F100043A
:101A60004FEA80604FEA1C4C0CFB0BF7D21B03FBC8
:101A70000CF761EB07010CFB0EF7B0EB074072EBC4
:101A800017420CFB08F734BFA2EB0742B2EB074248
:101A900061EB174115EB1C154FEA813141EA924188
:101AA0004FEA823242EA90424FEA80304FEA0C76A7
:101AB00044F1000448EA03434EEA0B484FF0000E9D
:101AC000B2EB080C71EB030724BF624639464EEBBC
:101AD0000E0E4FF0000B0018524149414BEB0B0B1F
:101AE000B2EB080C71EB03077BF1000B24BF6246DD
:101AF00039464EEB0E0E4FF0000B00185241494193
:101B00004BEB0B0BB2EB080C71EB03077BF1000BFB
:101B100024BF624639464EEB0E0E51EA020718BF4B
:101B200046F0010616EB0E7655F1000254F1000165
:101B300003D5BDE88901BDE80088BDE88901BDE89D
:101B40000048B619524141EB0101A3F1010370476E
:101B500080807F7E7D7C7B7A7978777676757473EA
:101B6000727171706F6E6E6D6C6C6B6A6A696868A9
:101B7000676666656464636362616160605F5F5E3F
:101B80005E5D5D5C5C5B5B5A5A59595858575756B5
:101B9000565555555454535352525251515050501A
:101BA0004F4F4F4E4E4D4D4D4C4C4C4B4B4B4A4A6C
:101BB0004A494949484848474747474646464545B0
:101BC00045444444444343434342424242414141E9
:101BD000002B9C4630D477002BD01CB54FEA37073A
:101BE00003B44FF010004FF01001BAF1000F06D00F
:101BF000BCF1000FDCBF40F0080040F008014FF0DE
:101C000000000FBCBDE810400BF1010BBBF1010F50
:101C100008BF5FEA170722BF12F1010211F10101AB
:101C20004FF0004143F1000300F0004043EA0000A0
:101C30007047F9D35708D0E746EA064613F1400F3C
:101C40004FEA16461FDD13F1200FDFBF16430A4689
:101C5000002120335B42BED0C3F1200746EA06468E
:101C600002FA07F74FEA164646EA0706C3F12007CD
:101C700022FA03F201FA07F721FA03F14FF0000309
:101C800042EA0702A7E746EA020646EA06464FEAA4
:101C9000164646EA0106BCBF46EA0646360C4FF039
:101CA00000034FF000024FF0000194E72DE9804C53
:101CB0009A46934670B491E8380007C831EA400C60
:101CC00048BF34EA430C03D5FFF7E6FDFFF780FF7A
:101CD000F0BCBDE8008C2DE9804C9A46934670B468
:101CE00091E8380007C810F0804F08BF13F0804F0C
:101CF00003D100F005F8FFF76BFFF0BCBDE8008CE6
:101D000020F07F4780EA030023F07F4C07EB0C03B1
:101D1000A3F57C5300F00040A3F1FE0392F0000F06
:101D200000F0B38095F0000F00F077802DE90149B5
:101D30004FEA11404FEA144621EA004800FB06FC36
:101D400024EA064708FB06F607FB08F800FB07F73E
:101D500018EB06484CEB164C4FEA124B18EB0748B1
:101D60004FEA15464CEB174022EA0B4E0BFB06FCE4
:101D700025EA06470EFB06F607FB0EFE0BFB07F7F0
:101D80001EEB064E4CEB164C4FF000061EEB074EBA
:101D90004CEB174B18EB0B0840F1000018EB0E0B47
:101DA00058EB000840F100008F1A4FF000013CBFD3
:101DB000C943661B14BFB5EB040C00213CBFC943EB
:101DC000F61B4FEA17444EEA8E0E27EA04454FEA07
:101DD0001C4704FB07622CEA074C05FB07F70CFBCA
:101DE00005F604FB0CFC16EB074642EB174216EB1C
:101DF0000C4642EB1C421BEB060658EB020241412B
:101E000046EA9E0601D5BDE80189B619524141EB6B
:101E10000101A3F10103BDE801894FEA14454FEA2E
:101E2000114724EA054621EA074C05FB07F406FBA7
:101E300007F70CFB06F105FB0CFC11EB074144EB2B
:101E400017444FEA124711EB0C4144EB1C4422EAC1
:101E5000074C05FB07F206FB07F70CFB06F605FB34
:101E60000CFC16EB074642EB174216EB0C4642EB16
:101E70001C456A1854F1000148BF7047B619524119
:101E800041EB0101A3F10103704795F0000F37D03A
:101E90004FEA11424FEA144721EA024624EA074C6E
:101EA00002FB07F106FB07F70CFB06F402FB0CFC38
:101EB00014EB074441EB17414FEA154714EB0C4470
:101EC00041EB1C4125EA074C02FB07F506FB07F72F
:101ED0000CFB06F602FB0CFC16EB074645EB174520
:101EE00016EB0C4645EB1C42121951F1000148BF9C
:101EF0007047B619524141EB0101A3F1010370474C
:101F00004FEA14454FEA114724EA054621EA074CF7
:101F100005FB07F106FB07F70CFB06F24FF0000686
:101F200005FB0CFC12EB074241EB174112EB0C4294
:101F300051EB1C4148BF7047921841EB0101A3F1DE
:101F400001037047FEE7704710B590F8211000229A
:101F5000022905D00421816380F82020012010BDD2
:101F600001680B6823F00E030B6001680B6823F017
:101F700001030B6090F84030C46B012101FA03F3B8
:101F8000636080F8211080F82020104610BD00000A
:101F900010B590F821100024022903D00421816398
:101FA00001243DE001680A6822F00E020A6001681F
:101FB0000A6822F001020A601A4A0168914201D1BE
:101FC000012121E0174A1432914201D110211BE076
:101FD000144A2832914201D1891515E0114A3C3248
:101FE000914201D189140FE00E4A5032914202D140
:101FF0004FF4803108E00B4A6432914202D14FF431
:10200000801101E04FF08071064A083A51600121C9
:1020100080F82110002180F82010416B01B1884721
:10202000204610BD080002402DE9F84FDFF8B891B6
:102030000024A9F1040B23460F2709F1040AABF190
:10204000040EC9E00125A5402A40AA427DD1674E71
:10205000D1F804C0ACEB0608B44532D014DCBCF1B6
:10206000030F3AD009DCBCF1000F2AD0BCF1010FFC
:102070001CD0BCF1020F31D11DE0BCF1110F17D003
:10208000BCF1120F2AD119E0B8F5881F19D006DC6F
:10209000B8F5803F15D0B8F5801F1FD111E0B8F515
:1020A000001F0ED0B8F5041F18D10AE0CB6815E068
:1020B000CB681B1D12E0CB6808330FE0CB680C33F4
:1020C0000CE08B682BB1012B4FF0080303D0456166
:1020D00004E0042302E0056100E00023FF2A01D8A8
:1020E000064601E000F104064FEA840501D9A5F196
:1020F0002005D6F8008007FA05FC28EA0C0803FA48
:1021000005F548EA0508C6F800804D68ED0062D57F
:10211000374DAE6946F00106AE61AD6924F00306A5
:1021200005F001050095334D06EB050CDCF8085071
:10213000A607360F07FA06F825EA0805DFF8B88083
:10214000404503D14FF0000817E044E0DFF8AC80D1
:10215000404502D14FF001080FE0DFF8A480404570
:1021600002D14FF0020808E0DFF89880404502D124
:102170004FF0030801E04FF0040808FA06F848EAB7
:102180000508CCF808804D68D9F80060ED024D468E
:1021900001D5164300E096432E604D68DAF80060E2
:1021A000AD02554601D5164300E096432E604D68BA
:1021B000DBF80060AD035D4601D5164300E09643B1
:1021C0002E604D68DEF80060ED03754601D51643BC
:1021D00000E096432E60641C0D682A46E5407FF4BB
:1021E00031AFBDE8F88F0000080401400000111075
:1021F000001002400000014000080140000C0140B6
:1022000000100140001401408068084000D0012007
:1022100070470000014880687047000038000020C7
:1022200002488168027811448160704738000020BC
:10223000074810B5016841F010010160032000F06B
:10224000A1F80F2000F006F800F04AF8002010BDB9
:102250000020024030B505461C4887B0816941F432
:1022600000618161806906A900F40060009001A806
:1022700000F030F900F05EF91549164AB0FBF1F1B3
:102280001548491E0260416040F2E7320021C0E972
:1022900003218160816100F049FB040012D10E48E6
:1022A00000F072FB04000DD1192000F03DF8102D54
:1022B00007D200222946192000F044F8074805609B
:1022C00000E0012407B0204630BD000000100240AD
:1022D00040420F00002C0140A40400203C000020DC
:1022E0000F4808B5816941F001018161816901F000
:1022F00001010091C16941F08051C161C0690022B2
:1023000000F0805000900F21901E00F01BF805484F
:10231000416821F0E06141F00071416008BD0000BA
:102320000010024000000140002809DB00F01F02FD
:10233000012191404009800000F1E020C0F8001127
:1023400070470000F0B40E4B1B680C46C3F3022329
:10235000C3F10705042D00D90425191D072901D251
:10236000002300E0DB1E012606FA05F1491E21408C
:1023700099409E40761E16403143F0BC01F0D3BB1D
:102380000CED00E0064900F0070208684FF6FF0375
:10239000184040EA0220034A1043086070470000DA
:1023A0000CED00E00000FA052DE9F0470F460500AE
:1023B00061D0434E306800F00700B84209D230685F
:1023C00020F0070038433060306800F00700B84262
:1023D00051D128683B4C810712D5400703D560686E
:1023E00040F4E06060602878000703D5606840F43E
:1023F000605060606068A96820F0F0000843606089
:102400002878C00728D06868012810D021680228E1
:1024100010D0890700292EDA616821F003010143F9
:102420006160FFF7F7FE804641F288390DE02168D0
:102430008903EFE78901EDE7FFF7ECFEA0EB080168
:10244000494502D90320BDE8F0876068696800F05B
:102450000C00B0EB810FEFD1306800F00700B842FC
:102460000BD9306820F0070038433060306800F046
:102470000700B84201D00120E5E72878400705D5DC
:102480006068E96820F4E06008436060287800072D
:1024900006D56068296920F4605040EAC100606098
:1024A00000F058F86168084AC1F30311515CC84054
:1024B0000649086006480068FFF7CCFE0020C2E726
:1024C0000020024000100240DA68000844000020AA
:1024D0003C0000200F2202600C4A536803F0030303
:1024E0004360536803F0F0038360536803F4E063D0
:1024F000C36052684FF4E06303EAD2020261044809
:10250000006800F0070008607047000000100240FB
:10251000002002400448054900684968044AC1F3A4
:102520000221515CC8407047440000200010024066
:10253000EA6800080448054900684968044AC1F38C
:10254000C221515CC8407047440000200010024086
:10255000EA6800080E4A51680E4801F00C03042B8B
:1025600011D0082B0FD10C48C1F38343C903C05CC1
:102570000AD55168084AC1F34041921E515C054A90
:102580005043B0FBF1F070470449484370470000E6
:102590000010024000127A00CA68000800093D00DD
:1025A0002DE9F84F040070D02078C04DC00749D005
:1025B0006868C0F38100012807D06868C0F3810013
:1025C000022809D16868C00306D52868800339D578
:1025D00060680028E7D035E06068B0F5803F0BD038
:1025E00010B1B0F5A02F11D0286820F480302860F9
:1025F000286820F4802002E0286840F480302860B9
:10260000606890B1FFF706FE06460AE0286840F4CD
:1026100080202860F0E700BFFFF7FCFD801B6428E6
:1026200073D828688003F7D50CE0FFF7F3FD064662
:1026300005E000BFFFF7EEFD801B6428F0D8286896
:102640008003F7D420789A4E80074FF001094FF0AD
:10265000000839D5686810F00C0F07D06868C0F31F
:102660008100022809D16868C00306D42868800761
:1026700014D52069012808D110E02069B0B1C6F84E
:102680000090FFF7C7FD074605E00AE1FFF7C2FD2E
:10269000C01B0228C4D828688007F7D5286861695C
:1026A00020F0F80040EAC10028600DE0C6F8008084
:1026B000FFF7B0FD074604E0FFF7ACFDC01B0228A2
:1026C00023D828688007F7D4207800072CD57948CC
:1026D000A169D9B1C0F80090FFF79CFD074604E05E
:1026E000FFF798FDC01B02280FD8686A8007F7D54E
:1026F00071484FF4FA510068B0FBF1F0009000BF50
:102700000098411E0091FAD20EE080E0C0F80080EF
:10271000FFF780FD074604E0FFF77CFDC01B0228A1
:1027200075D8686A8007F7D42078400760D5E869D3
:102730000027C00008D4E86940F08050E861E869EB
:10274000012700F0805000905C480168C90513D44F
:102750000168834641F480710160FFF75BFD8246AA
:1027600006E000BFFFF756FDA0EB0A0064284ED834
:10277000DBF80000C005F5D5E06801280AD008B1F3
:10278000052813D0286A20F001002862286A20F06A
:10279000040002E0286A40F001002862E06841F28B
:1027A000883B98B1FFF736FD82460BE0286A40F07F
:1027B00004002862EEE700BFFFF72CFDA0EB0A0142
:1027C00059455AD8286A8007F6D50CE0FFF722FD54
:1027D000824605E0FFF71EFDA0EB0A0159454CD8E3
:1027E000286A8007F6D41FB1E86920F08050E861BC
:1027F000E06988B36968C1F38101022944D00228E5
:10280000C6F8608004D0FFF705FD044638E034E0E8
:10281000FFF700FD074604E0FFF7FCFCC01B0228A1
:102820002BD828688001F7D4206AB0F5803F05D105
:102830006868A16820F4003008436860D4E90801A2
:102840000843696821F4741108436860C6F8609011
:10285000FFF7E0FC044606E025E000BFFFF7DAFCE6
:10286000001B022809D828688001F7D51BE000BFAB
:10287000FFF7D0FC001B022802D90320BDE8F88F27
:1028800028688001F4D40EE00128F7D06868226A35
:1028900000F48031914204D1616A00F470108842E2
:1028A00001D00120EAE70020E8E700000010024024
:1028B0000000424280044242440000200070004078
:1028C0007047704770B590F83C20012A26D001244B
:1028D00080F83C40022280F83D2003685A689D68D9
:1028E00022F070060A6832435A600D4B02689A4221
:1028F00008D0B2F1804F05D00A4B9A4202D00A4B61
:102900009A4204D1496825F080031943916080F808
:102910003D40002180F83C10084670BD022070BD8B
:10292000002C0140000400400008004010B50400E5
:1029300003D094F83D0010B107E0012010BD002045
:1029400084F83C00204600F01EF8022084F83D0088
:10295000211D206800F09AFE012084F8460084F8CA
:102960003E0084F83F0084F8400084F8410084F879
:10297000420084F8430084F8440084F8450084F859
:102980003D00002010BD704790F83D10012901D096
:1029900001207047022180F83D100168CA6842F0AA
:1029A0000102CA6000680B49884208D0B0F1804F2C
:1029B00005D00949884202D00849884204D181687B
:1029C00001F00701062903D0016841F0010101600F
:1029D00000207047002C0140000400400008004027
:1029E00070472DE9F04104460068C66805694FF05C
:1029F0000007A90713D5B10711D5F91E0161012000
:102A00002077206880698007204602D0FFF7E8FF22
:102A100004E000F0A5F8204600F04AF9277768079F
:102A200016D5700714D521686FF0040008610220E4
:102A300020772068806910F4407F204602D0FFF79D
:102A4000CFFF04E000F08CF8204600F031F9277742
:102A5000280715D5300713D521686FF008000861E5
:102A6000042020772068C0698007204602D0FFF745
:102A7000B7FF04E000F074F8204600F019F927775A
:102A8000E80616D5F00614D521686FF0100008612D
:102A9000082020772068C06910F4407F204602D0CB
:102AA000FFF79EFF04E000F05BF8204600F000F91D
:102AB0002777E80708D0F00706D021686FF00100FB
:102AC0000861204600F044F9280608D5300606D5EE
:102AD00021686FF0800008612046FFF7F1FE68066C
:102AE00008D5700606D521686FF0400008612046C1
:102AF00000F038F9A8060AD5B00608D521686FF0AD
:102B0000200008612046BDE8F041FFF7DABEBDE8CD
:102B1000F081000000B585B0002100910191029183
:102B2000039100680B49884212D10B48816941F03A
:102B3000080181618069694600F0080004904FF443
:102B4000707000900220019003900448FFF76CFA27
:102B500005B000BD0008004000100240000C01401C
:102B6000704770B5044690F83C0000260D460128D9
:102B70000FD0012084F83C006AB1042A1DD0082A35
:102B80002FD00C2A3FD00126002084F83C0030468C
:102B900070BD022070BD206800F0C2FD2068816910
:102BA00041F0080181612068816921F0040181619F
:102BB000206881692A69114311E0206800F0D8FD7E
:102BC0002068816941F4006181612068816921F494
:102BD00080618161206881692A6941EA02218161FD
:102BE000D2E7206800F0F0FD2068C16941F00801DB
:102BF000C1612068C16921F00401C1612068C16917
:102C00002A69114311E0206800F00AFE2068C169BA
:102C100041F40061C1612068C16921F48061C16132
:102C20002068C1692A6941EA0221C161ACE710B597
:102C3000040003D094F83D0010B107E0012010BD5E
:102C4000002084F83C00204600F01EF8022084F8A2
:102C50003D00211D206800F019FD012084F8460088
:102C600084F83E0084F83F0084F8400084F8410076
:102C700084F8420084F8430084F8440084F8450056
:102C800084F83D00002010BD08B500680649884260
:102C900008D10648C16941F00401C161C06900F072
:102CA0000400009008BD0000000800400010024031
:102CB0007047000010B50446022249B104290ED025
:102CC000082913D094F84100012816D0012010BD26
:102CD00094F83E000128F9D184F83E200FE094F8E2
:102CE0003F000128F2D184F83F2008E094F840002A
:102CF0000128EBD184F8402001E084F84120012232
:102D0000206800F0FFFC0F492068884203D1426C24
:102D100042F4004242642068884208D0B0F1804FFB
:102D200005D00949884202D00849884204D1816807
:102D300001F00701062903D0016841F0010101609B
:102D4000002010BD002C014000040040000800409D
:102D500000680349884201D1FFF762BA704700005A
:102D6000002C01407047704770470000F8B50168BB
:102D700004460868CA684B6910F00F0F4FF0000551
:102D800059D003F0010602F49077374365D0C107AC
:102D900005D0D10503D5616C41F0010161644107A3
:102DA00005D5D90703D0616C41F002016164810748
:102DB00005D5D90703D0616C41F0040161640107B6
:102DC00007D502F02001314303D0616C41F00801C6
:102DD0006164616C00293AD0800604D5900602D562
:102DE000204600F06EFD20684069616CC0F38010E1
:102DF000090700D460B3204600F03CFD206840691C
:102E0000400621D52068143050E8001F21F0400111
:102E100040E80012002AF5D1E06BA8B16D4941638A
:102E2000E06BFFF7B5F8002811D0E06B416B01B003
:102E3000BDE8F040084783060FD593060DD5204620
:102E4000BDE8F84000F03DBD2046FFF78DFFF8BD1E
:102E50002046FFF789FF6564F8BD266B2023012E0D
:102E60007CD1C6067AD5D60678D508684868009021
:102E700048694FF00206400640D5E16B086840689B
:102E80000004000CE8D0A28D8242E5D9E085886973
:102E900020282DD020680C3050E8001F21F48071CC
:102EA00040E80012002AF5D12068143050E8001FD5
:102EB00021F0010140E80012002AF5D12068143009
:102EC00050E8001F21F0400140E80012002AF5D12F
:102ED00084F84230256320680C3050E8001F21F050
:102EE000100140E80012002AF5D1E06BFFF72CF842
:102EF0006663A08DE18D401A81B22AE0A08DE18D3C
:102F0000401A81B2E08D0028A6D00029A4D0226802
:102F10000C3252E8000F20F4907042E80007002FB6
:102F2000F5D12068143050E8002F22F0010240E86B
:102F30000027002FF5D184F84230256320680C303B
:102F400050E8002F22F0100240E80023002BF5D1BA
:102F500066632046FFF707FFF8BDFFE705062BD5A0
:102F6000150629D594F841002128F5D1A068B0F5BF
:102F7000805F01D12069B0B1206A411C21622168C3
:102F800000784860E08C401E0004000CE084E3D12F
:102F90002068C16821F08001C1602068C16841F0EB
:102FA0004001C160D8E7206A0088C0F3080048608B
:102FB000206A801C2062E5E74006CDD55006CBD5BF
:102FC000CA68204622F04002CA6084F8413000F00E
:102FD00069F9C1E76538000870B5040004D094F8B9
:102FE0004100002510B106E0012070BD84F840507A
:102FF000204600F023F8242084F841002068C168AE
:1030000021F40051C160204600F0BCFC2068016939
:1030100021F4904101612068416921F02A01416158
:103020002068C16841F40051C1606564202084F8C3
:10303000410084F842006563002070BD70B586B021
:103040000024009401940294039403682E482D4EAA
:10305000022103220515B34226D1836943F480433C
:103060008361836903F480430493836943F0040319
:1030700083618069254E00F0040004900802CDE9C8
:103080000001039269463046FEF7CEFFCDE90054B9
:10309000694630460294FEF7C7FF0022052125202D
:1030A000FFF750F9252028E0194EB34227D1C36914
:1030B00043F48023C361C36903F4802304938369C9
:1030C00043F0080383618069CDE9005100F00800F6
:1030D000CDE903200F4D69462846FEF7A5FFE81409
:1030E000CDE90004694628460294FEF79DFF0022C0
:1030F00005212720FFF726F92720FFF715F906B04D
:1031000070BD00000038014000100240000801407E
:1031100000480040000C014090F84230202B01D0C4
:103120000220704721B11AB10023036300F086BC6E
:10313000012070472DE9F04107462E480025012661
:103140002D4C4FF00208874225D1E179A2783AB19F
:1031500020462A4BC078012A09D0022A10D014E058
:10316000402912D1607980B9A670E5700DE023295D
:1031700003D01954401CE07007E084F8028004E09A
:103180002E2902D1A5701D5466711B490122C91D4B
:103190001848FFF7C1FF1A48874228D1A079217843
:1031A00031B1164A643A012909D0022911D016E03A
:1031B000402814D1207990B9267065700FE023283B
:1031C00004D061785054491C617008E084F8008094
:1031D00005E02E2803D12570607815542671BDE8CE
:1031E000F04105490122891D0548FFF795BFBDE85B
:1031F000F0810000080200200000002014010020DF
:10320000C00100202DE9F843044690F8410098469B
:1032100016460D46202802D00220BDE8F88385B16D
:103220007EB100206064212084F84100FEF7F2FFA7
:10323000A6848146E684A0682027B0F5805F02D08E
:1032400003E00120E9E7206910B12E4600250EE0D9
:1032500000260CE08021204600F00BFCA8B9C6B186
:1032600016F8010B21684860E08C401EE084E08C79
:103270004B464FF00002CDF800800028EAD14FF015
:103280004001204600F0F5FB40B184F84170032076
:10329000C3E735F8020BC0F30800E3E784F8417098
:1032A0000020BAE77047000010B54F4C6079012844
:1032B0007DD14E4800F00AFDA06060B900F0E4FC4A
:1032C000010003D04AA002F0CBF802E051A002F0C6
:1032D000C7F8A06878B156A100F0DCFC58B154A141
:1032E000A06800F0D7FC0146E060D1E9060102F0D9
:1032F000F3FB206102E04FA002F0B2F8A06878B1C1
:103300004FA100F0C7FC58B14DA1A06800F0C2FC6D
:103310000146E060D1E9060102F0DEFB606102E0F7
:1033200048A002F09DF8A06878B149A100F0B2FC75
:1033300058B147A1A06800F0ADFCE060D0E90621DB
:10334000104602F0C9FBA06102E042A002F088F83A
:10335000A06878B142A100F09DFC58B140A1A068DE
:1033600000F098FCE060D0E90621104602F0B4FBC2
:10337000E06102E03BA002F073F8A06808B100F041
:103380005FFC206903F080F902460B4638A002F08A
:1033900067F8606903F078F902460B4637A002F03F
:1033A0005FF8A06903F070F902460B4600E01AE0EE
:1033B00035A002F055F8E06903F066F902460B46C5
:1033C00034A002F04DF83649084800F0DDFC35A184
:1033D0000648FDF72BFA20B941F28831462000F06B
:1033E00043FD0020607110BD00000020140100208A
:1033F0004A534F4EE8A7A3E69E90E5A4B1E8B4A5D2
:103400002CE99499E8AFAFE4BD8DE7BDAE3A2573E2
:103410000D0A0000E69CAAE883BDE88EB7E58F960A
:10342000E99499E8AFAFE4BD8DE7BDAE0D0A0000A9
:1034300070000000E6B2A1E69C89700D0A00000051
:1034400069000000E6B2A1E69C89690D0A0000004F
:1034500064000000E6B2A1E69C89640D0A00000049
:1034600061000000E6B2A1E69C89610D0A0000003F
:10347000503A252E31660D0A00000000493A252EEB
:1034800031660D0A00000000443A252E31660D0A0F
:1034900000000000413A252E31660D0A00000000B0
:1034A0000802002072756E00FFF7FEFE0A2000F091
:1034B000FBFCF9E7FEE7000070B50C4D4FF4004649
:1034C000002431462846FEF79FFE60B90A2000F02E
:1034D000EBFC31462846FEF797FE0028F9D00A207B
:1034E00000F0E2FC0124204670BD0000000801400D
:1034F00000B585B0002001900290039010488169CA
:1035000041F020018161816901F02001049181690C
:1035100041F008018161816901F00801049181692C
:1035200041F0040181618069694600F00400049063
:103530004FF4004000900348FEF776FD05B000BD53
:10354000001002400008014010B58AB00024079422
:103550001C2168460894FDF742F922482049016081
:103560002321C0E901146321C0E903148021816192
:10357000FFF75DFB08B172B6FEE7079407A919488B
:103580000894FFF79FF908B172B6FEE76020CDE915
:10359000000402940022694612480494FFF7E1FAFD
:1035A00008B172B6FEE7042269460E48FFF7D9FA61
:1035B00008B172B6FEE7082269460A48FFF7D1FA59
:1035C00008B172B6FEE70C2269460648FFF7C9FA51
:1035D00008B172B6FEE70348FFF79CFA0AB010BDC7
:1035E0000008004078010020FEE7FEE7012000F01F
:1035F0005BFCFBE710B5502080F31188BFF34F8FC1
:10360000BFF36F8F02F074F918B104494FF0805086
:103610000860002080F3118810BD000004ED00E078
:1036200030B58FB028216846FDF7D9F814210AA8D3
:10363000FDF7D5F801210804CDE90010002402941B
:1036400002250491CDE907504FF4E0100990684637
:10365000FEF7A6FF08B172B6FEE70F20CDE90A0516
:103660004FF48060CDE90C4002210AA80E94FEF7C9
:103670009BFE002801D072B6FEE70FB030BD704748
:103680000148FFF7AEB90000A4040020F0B50268BD
:10369000194B1A4C1A4D4FF08047984205D0B8424A
:1036A00003D0A04201D0A84203D122F070064A689C
:1036B0003243984205D0B84203D0A04201D0A8427C
:1036C00003D122F44074CA6822434C6922F080027C
:1036D000224302608A68C2620A688262984201D10B
:1036E00009690163012141610169C90703D00169C9
:1036F00021F001010161F0BD002C014000040040F7
:103700000008004010B501F01F030121046A994030
:103710008C430462016A9A401143016210BD0000AB
:1037200030B5036A026A22F00102026242688469CB
:1037300024F073050C682C4323F002058B682B439F
:103740000A4DA8420BD123F00805CB6822F4407241
:103750002B434D6923F0040315438A692A434260D1
:10376000846149684163036230BD0000002C014060
:1037700030B5026A036A23F0100303624368846968
:103780000D6824F4E64444EA05248D6822F0200202
:1037900042EA05120B4DA8420ED1CD6822F08002FC
:1037A00042EA05124D6923F4406343EA85038D69BB
:1037B00022F0400243EA85034360846149688163E3
:1037C000026230BD002C014030B5036A026A22F467
:1037D000807202624268C46923F4007324F07305A6
:1037E0000C682C438D6843EA05230C4DA8420ED18A
:1037F000CD6823F4006343EA05234D6922F4405267
:1038000042EA05128D6923F4806342EA05124260A0
:10381000C4614968C163036230BD0000002C0140EF
:1038200030B5046A026A22F4805202624268C369B7
:103830000D6823F4E64343EA05238D6824F400541D
:1038400044EA0534064DA84204D14D6922F4804271
:1038500042EA85124260C36149680164046230BD76
:10386000002C014010B5406A0021C185C184FFF7DA
:103870007BFA10BD01680C3151E8002F22F49072E0
:1038800041E80023002BF5D10168143151E8002FE5
:1038900022F0010241E80023002BF5D1016B012940
:1038A00009D101680C3151E8002F22F0100241E8E3
:1038B0000023002BF5D1202180F842100021016364
:1038C000704708B590F84210222901D0022008BDA7
:1038D00082684FF480539A4201D1016921B1816A13
:1038E0009A421BD04AB10AE00268816A5268C2F368
:1038F00008020A80816A891C08E0026972B10268C4
:10390000526802F07F020A70816A491C8162C18D8F
:10391000491E0904090CC18503D01BE002685268E6
:10392000F1E70168CA6822F02002CA600168CA682B
:1039300022F48072CA6001684A6922F001024A6179
:10394000202180F8421000214163026B012A03D03C
:10395000FFF7F0FB002008BD016301680C3151E85E
:10396000002F22F0100241E80023002BF5D101685E
:103970000A68D20602D50A6849680091818DFFF76E
:10398000F2F9E7E770B5044600680169E26821F4DE
:103990004051114301612169A068084361690843EE
:1039A0002168CA6841F20C639A430243CA602068E6
:1039B0004169A26921F44071114341611E492068A7
:1039C000884202D1FEF7B6FD01E0FEF7A3FD00EB51
:1039D000C00101EB0012606864218000B2FBF0F3CB
:1039E000B3FBF1F36FF018067343B2FBF0F5B2FBD3
:1039F000F0F605EB8305322303EB0515B5FBF1F576
:103A0000B6FBF1F605F0F00505EB0615B2FBF0F696
:103A1000B2FBF0F0B0FBF1F06FF01802504306EB90
:103A2000800003EB0010B0FBF1F0216800F00F0004
:103A30002844886070BD00000038014081628285A2
:103A4000C28500214164222180F84210016921B120
:103A50000168CA6842F48072CA6001684A6942F02B
:103A600001024A610068C16841F02001C160002084
:103A700070472DE9F843984617460D460446089EC0
:103A800024E0701C22D0FEF7C5FBA0EB0800B0427A
:103A90001AD8CEB12068C168490717D5802D15D036
:103AA000402D13D00168C94309070FD401680025D0
:103AB000406800902046FFF7DDFE0820606484F82F
:103AC00040500120BDE8F8830320FBE72068006830
:103AD00035EA000004D00020B842D2D00020F1E73F
:103AE0000120F9E70148FFF741B90000C0010020BB
:103AF0000148FFF73BB9000008020020FEE749003B
:103B000050EAC12018BF04204A0D18BF40F0010040
:103B100040F2FF72B2EB515F08BF40F00200012893
:103B200008BF052070470907090E002804DB00F1D3
:103B3000E02080F80014704700F00F0000F1E02052
:103B400080F8141D70472DE9F0414F1E00EBC701AE
:103B50000446D1E9000115461E4637F006020DD095
:103B60002A46334602F080FA7F1E04EBC703D3E9EE
:103B7000002301F0E3FF37F00602F1D1022F25D038
:103B8000042F13D0062F18BFBDE8F0812A46334614
:103B900002F06AFAD4E90A2301F0D0FF2A4633463C
:103BA00002F062FAD4E9082301F0C8FF2A4633463E
:103BB00002F05AFAD4E9062301F0C0FF2A46334640
:103BC00002F052FAD4E9042301F0B8FF2A46334642
:103BD00002F04AFAD4E9022301F0B0FF2A46334644
:103BE00002F042FAD4E90023BDE8F04101F0A6BF9B
:103BF000002213461046014902F05CB80000F03F75
:103C000001F09CBF002213461046114602F052B844
:103C100040F2013200204FF0E04102F0E1BD00002F
:103C2000024A0020110702F0DBBD000001FDFFFF8A
:103C300030380A2801D20120704700207047000068
:103C400070B504460F4E19E0A0892568C0050AD456
:103C5000A06820B1FFF7F4FFA089C00503D4206954
:103C600008B171688847A089800503D4206A08B12B
:103C7000716888477168204688472C46002CE3D13C
:103C800070BD0000200000200148806870470000DF
:103C90002000002070B50D46846800E024682CB137
:103CA0002946206A00F046F80028F7D1204670BD6A
:103CB000054910B5096828208847040002D028214A
:103CC000FCF78DFD204610BD20000020002211468B
:103CD000AFF300802DE9F04190460E460446FFF711
:103CE000E7FF134F05004FF00000B86015D02046E5
:103CF00001F0C8FB0146284600F064FB04000FD029
:103D0000B8F1000F10D0204601F0BCFB044600784B
:103D100050B12846FFF794FFBC600020BDE8F08159
:103D20002846FFF78DFFF8E706B134602846F5E72F
:103D30002000002070B505000C4601D00CB108E051
:103D400009B1012070BD002070BD0028FCD0641CAA
:103D50006D1C2878FCF734FB06462078FCF730FB16
:103D600086422878F1D0FCF72BFB05462078FCF73B
:103D700027FB281A70BD13B508464FF0FF33012208
:103D80006946FFF73FFA1CBD70B50E460546002494
:103D900003E03146FFF7EFFF641C285D0028F8D1EF
:103DA00070BD000096B0FEF743FAFFF739FCFFF74D
:103DB0009FFBFFF7C9FB254823494FF4E135002459
:103DC0000160C0E901540C26C460C0E90446846166
:103DD000C461FFF701F908B172B6FEE71B481C4940
:103DE00048380160C0E90154C460C0E904468461F8
:103DF000C461FFF7F1F808B172B6FEE700F040F8D1
:103E00001C2214496846FCF7B8FC0021684600F003
:103E100057F8114C0F491C2220601C3107A8FCF7F1
:103E2000ACFC002107A800F04BF80A4960601C2296
:103E300038310EA8FCF7A1FC00210EA800F040F8D4
:103E4000A06000F038F8FEE70048004008020020BB
:103E500000380140746800082C0000200146002052
:103E6000842900D0C81C704708B5642800D9642094
:103E7000C9B2002300910246194601F049FA08BD73
:103E800010B5012205490648FFF746F9034901220A
:103E9000BDE81040491C0348FFF73EB9060000206A
:103EA000C00100200802002010B500B9012001F077
:103EB000E1FB002010BD10B501F002FC002010BD98
:103EC0007FB50D4604464169B0F9080081B1A1698A
:103ED00071B1FFF7C3FFD4E905128DE80700D4E9FB
:103EE00000102B46226901F0D8FC039004B070BD8D
:103EF000FFF7B4FF03A9CDE90001208A2B4682B267
:103F0000D4E9001001F09CFC012801D00020EDE76D
:103F10000398EBE72DE9F041044608781A4E5B2838
:103F200001D0B1602BE00520E060481C01F0AAFA46
:103F3000074600785D2806D0FFF7BAFE051EA06090
:103F400002D038460AE0781CBDE8F081FFF7B0FEE9
:103F50000028F9D0286045600546601C01F092FAFF
:103F60000146284600F02EFA01F08CFA040006D033
:103F700020782C28EAD020785D2802D0B460002078
:103F8000E2E7601CE0E70000200000200178A1F1DA
:103F90003002092A01D811460AE0A1F14102052A9E
:103FA00001D8373904E0A1F16102052A3FD8573919
:103FB0000A0110F8011FA1F13003092B01D8303A92
:103FC0000AE0A1F14103052B01D8373A04E0A1F141
:103FD0006103052B2BD8573A11440A0110F8011F31
:103FE000A1F13003092B01D8303A0AE0A1F14103D5
:103FF000052B01D8373A04E0A1F16103052B16D84F
:10400000573A114440780901A0F13002092A01D839
:10401000303904E0A0F14102052A02D837390844BA
:104020007047A0F16102052A01D85739F7E700204F
:10403000704700002DE9F34F002583B00C4650492E
:104040000120CDE90051029020782E462F46A84647
:10405000A9462D2804D100204A49641CCDE900015D
:104060002078302800D1641C20783138082816D8F0
:1040700014F8010B303801F0A4FF82468B46002271
:10408000414B2846314601F0EFFF52465B4601F0B6
:1040900055FD054620780E4630380928E8D92078A5
:1040A0002E2824D16078302841D339283FD8641C89
:1040B00014F8010B303801F084FF82468B46002251
:1040C000314B2846314601F0CFFF52465B4601F0A6
:1040D00035FD05460E460022294B3846414602F082
:1040E000E9F907462078884630380928E0D9207851
:1040F000652801D045281AD114F8010F2B2802D0C9
:104100002D2810D000E0641C6FF02F012078A0F162
:104110003002092A0BD809EB890201EB420200EBBD
:104120000209641CF2E74FF0FF300290EBE70299BE
:1041300009FB01F001F045FF3A46434601F0FEFC61
:1041400002460B460020104900F096F907468846C3
:10415000DDE900012A46334601F086FF3A46434630
:1041600001F082FF039AC2E9060101F0FBFE039908
:10417000486103980321C16005B02046BDE8F08F77
:104180000000F03F0000F0BF000024402DE9F041A6
:10419000054608782A4E7B2801D0B16033E006201E
:1041A000E860481C01F06EF9074600787D2813D0BE
:1041B000FFF77EFD041EA8600FD0384601F062F9BB
:1041C0000146204600F03EF801F05CF9002804D0DA
:1041D0002169002721622CE0781CBDE8F081B060E5
:1041E00011E0401C01F04EF90146204600F0EAF8CB
:1041F00001F048F9051EF0D028782C2805D0287841
:104200007D281BD0B5600020E7E7FFF751FD0028AF
:10421000E3D0206044600446681C01F033F9014695
:10422000204600F00FF801F02DF90028D5D02169C3
:104230002162276101783A29D3D0D0E7681CCCE706
:10424000200000202DE9F0470C460646481C227845
:1042500000215A4B222A07D000209C60BDE8F0873D
:10426000401C5C2A00D1401C0278222A02D00AB1EC
:10427000491CF5D1481C19688847051EEED0601C02
:104280002C464FF4806788E05C2903D004F8011BBA
:10429000401C82E000F101084078722814D006DC4E
:1042A000622809D0662809D06E2808D10AE074284F
:1042B0000CD0752803D10BE0082000E00C2004F896
:1042C000010B68E00A20FAE70D20F8E70920F6E77D
:1042D00008F10100FFF75AFE8146A0F55C4008F1A5
:1042E0000408B84257D3B9F1000F54D0A9F558408B
:1042F000B84217D298F801005C284CD198F8020017
:10430000752848D108F10300FFF740FEA0F55C4195
:1043100008F10608B9423ED2C9F3090161F39F20B2
:1043200000F580390420B9F1800F02D20120641C0D
:104330002AE0B9F5006F02D20220A41C06E0B9F50C
:10434000803F02D20320E41C0EE0241D022813D07B
:10435000032809D004281DD109F0BF0141F08001D4
:1043600004F8011D4FEA991909F0BF0141F08001DD
:1043700004F8011D4FEA991909F0BF0141F08001CD
:1043800004F8011D4FEA99190D49095C41EA090138
:1043900004F8011D044408F101000178222902D02B
:1043A00000297FF471AF002121700178222900D10A
:1043B000401C0421C6E9031550E70000200000203E
:1043C0006C68000870B50C00054620D0042223A1BB
:1043D0002046FCF787F9E0B1052222A12046FCF730
:1043E00081F9C8B1042221A12046FCF77BF9B8B1BC
:1043F0002078222819D02D2803D0A0F130010929D6
:1044000019D821462846BDE87040FFF713BE0020AA
:1044100070BD0220E86006E00020E860601D70BD0D
:104420000120E8606861201D70BD21462846BDE876
:104430007040FFF707BF5B2804D07B2808D00D48E9
:104440008460E4E721462846BDE87040FFF762BD7E
:1044500021462846BDE87040FFF798BE6E756C6C2B
:104460000000000066616C73650000007472756581
:1044700000000000200000202DE9F04D1D460C46F4
:1044800098B0174621F0004123F00043002814BFE4
:104490004FF0010C4FF0000C0CEB440CFE4A0CEBFF
:1044A00002064FEA620C66452BD33E0018BF012678
:1044B00006EB45061644F94A964222D3F84A53EAD7
:1044C000070C02D0944205D148B918B0002011461B
:1044D000BDE8F08D002808BF4FF0000C01D04FF070
:1044E000010C0CEB440212F5001F0AD8002F14BF78
:1044F0004FF0010C4FF0000C0CEB450212F5001FC1
:1045000007D918B03A462B462146BDE8F04DFFF7D3
:1045100077BB0022DFF88CA3002CB8BF534526DA06
:10452000DFF884C36345A8BF022220DADFF870C336
:104530009C451CDCDFF874C30CEB235CBCF1140F4E
:1045400008DDCCF1340627FA06FC0CFA06F6BE426A
:104550000DD108E05FB9CCF1140623FA06FC0CFA81
:1045600006F69E4203D10CF00102C2F1020251EAAA
:10457000000C19D1002D17DA002C18BF022A01D027
:10458000012A07D00220FCF7F4F918B0BDE8F04D7D
:10459000FFF72EBB0220FCF7ECF9FFF729FB18B060
:1045A00081F00041BDE8F08DB7F1000C6CD15345AE
:1045B00025D104F1804212F5801201BF00280020AD
:1045C000B74918B008BFBDE8F08DB548884207DC90
:1045D000002DA1BF6046294618B0BDE8F08D07E068
:1045E000281E05DA80F0004118B06046BDE8F08D65
:1045F000AF497944D1E9000118B0BDE8F08DDFF88A
:10460000A0C2634525D1002D1FDA19B1514512D141
:10461000D8B909E0002840F0EC82A24A214618B03F
:1046200062F31E01BDE8F08D0020214618B060F352
:104630001E01BDE8F08D08DA18B02346BDE8F04D44
:1046400002460020614601F035BB18B02146BDE8A6
:10465000F08D514518DAB5F1804F0DD0A5F1005C11
:10466000BCF1FF5C10D1B4F1000C0DDB18B0614659
:10467000BDE8F04D00F010BF234618B00246BDE87B
:10468000F04D194601F0F0BC060024F0004C3BD17F
:10469000D9B1514533D1002C06DD002DA1BF00203A
:1046A000514618B0BDE8F08D002C01DD002D1BDB5C
:1046B000002C13DA002D11DB012A4FF0000014BF8B
:1046C00078497C4918B0BDE8F08D022A18BF002C4B
:1046D0000AD0012A08D1002C06DA0AE0002CB8BF63
:1046E000002D11DA012A04D0002018B00146BDE8DF
:1046F000F08D18B000204FF00041BDE8F08DA1F121
:104700004050B0F17F601AD0012000EBE47050EA15
:10471000020421D0624C521E4FF0000B104304BF24
:104720004FF0000B644C654883427CDD644A654869
:1047300093421FDD884217DB002D25DB37E0002C7C
:1047400000DA4AB1022A0CBF01204FF0FF3018B046
:10475000BDE8F04D01F035BC0120FCF70AF918B0B6
:10476000BDE8F04DFFF74EBA4D4A8A4202DC002DFB
:104770000ADC1CE0814202DA002D18DA04E0484B22
:10478000994220DD002D12DD0220FCF7F2F8FFF740
:104790003FFA05460E46002253465846214601F090
:1047A00063FC18B066F31E012846BDE8F08D0220B8
:1047B000FCF7DFF8FFF734FA0A46214618B062F337
:1047C0001E01BDE8F08D00223046614601F072FE08
:1047D00080460E466FF0010202F002F84FF05532AB
:1047E000394B01F075FD4246334601F03DFC002295
:1047F000364B01F06DFD8246424633460491104629
:10480000194601F031FC5246049B01F02DFC8A460A
:1048100000904FF0C0422E4B4046314601F024FC40
:104820002C4A2B4B00E027E0CDE9060151460098C9
:1048300001F01AFC82460191274A284B4046314636
:1048400001F012FC5246019B01F034FE82460B46F9
:1048500002460591DDE9060101F070F9DDE9062364
:1048600000268846304601F025FE5246059B01F0A1
:104870002FFD024600F07EB90020B1F5801F07DA57
:1048800035223046614601F0ABFF06466FF034003A
:1048900000EB215024E00000FFFF1F00FFFF0F008E
:1048A0000000F03F0000F07F0000404301FCFFFFEC
:1048B000CA2300000000F0FF0000F0BF0000E0414C
:1048C0000000F043FFFFEF3F5555D53F0000E03FAC
:1048D0004715F73FFE822B6544DF5DF80BAE543E73
:1048E000A0F2FF300190C1F3130040F07F6141F06E
:1048F00040510291FE498842D8BF002004DDFD49A5
:104900008142C8BF012001DD0D9008E000200D901C
:104910000198401C01900298A0F580100290029925
:10492000F54878440B910D9900EBC100D0E90023C4
:104930000F9330460A920B9901F0BCFDCDE90601B8
:10494000DDE90A2130460F9B01F0F8F802460B46DC
:104950000020EA4901F0AEF9059102460B460090AD
:10496000DDE9060101F080FB1490E5488A464FF02E
:10497000000878440299006812904FF0005040EA15
:1049800061010D980F9B01EB804000F5002109911A
:104990000A9A129801F08EFD32460B9B01F098FCAA
:1049A0004246534601F060FB06460291404651469E
:1049B000099B129A01F058FBDDE9062301F088FCFF
:1049C0003246029B01F076FD059B009A01F04CFBFC
:1049D0000091149A049053461046194601F044FB86
:1049E00006460246C7480B46029106217844FFF767
:1049F000AAF8CDE90510029B32461046194601F08F
:104A000033FBDDE9053201F02FFB059106465346E5
:104A100040461946149A01F091F8009B049A01F05F
:104A200023FB3246059B01F089F8CDE9051042468B
:104A300053461046194601F017FB0022B24B029173
:104A40000A9001F07BF8DDE9053201F077F80E46B7
:104A50004246AD4B404601F02DFD029B0A9A01F003
:104A600029FDDDE9053201F033FC424602910A904E
:104A700033461046514601F0F7FACDE90601534698
:104A8000149A02990A9801F0EFFA8A460290334686
:104A900042460099049801F0E7FA5346029A01F061
:104AA0004DF882460B4602460591DDE9060101F00C
:104AB00045F8DDE9062300208846064601F0FAFCA9
:104AC0005246059B01F004FC824609914FF060427A
:104AD0008E4B3046414601F0C7FA049006918C4A4D
:104AE0008A4B5046099901F0BFFA82460291894AE1
:104AF000894B3046414601F0B7FA5246029B01F01D
:104B00001DF8864B7B440D9A03EBC203D3E90023C7
:104B100001F014F80E900791019801F052FA0591F6
:104B2000DDE9061382460E9A049801F007F87C4AE4
:104B30007A440D9B02EBC303D3E900230093029256
:104B400000F0FCFF5246059B00F0F8FF0026884667
:104B500052463046059B01F0ADFC009B029A01F0E5
:104B6000A9FC069B049A01F0A5FC079B0E9A01F094
:104B7000AFFB024600200B4602903846294601F062
:104B800073FA824601912B4638461946029A01F083
:104B900091FC3246434601F067FA5246019B00F011
:104BA000CDFF07468A46324643462946029801F021
:104BB0005BFA05460E463A46534600F0BFFF594A97
:104BC0008846914221DBA8EB020353EA000210D190
:104BD0002A46334601F06EFCCDE90401524A534B9C
:104BE0003846514600F0AAFFDDE9042301F03AFB04
:104BF00021D20220FBF7BDFEFFF70AF80A46214644
:104C000018B062F31E01BDE8F08D494B28F0004258
:104C10009A4210D3474A08EB020353EA00027FF49A
:104C2000C6AD2A46334601F045FC3A46534601F0EC
:104C300019FB7FF6BCAD0022019228F000403E49EE
:104C40003E4A01EB2051824223DA481C4FF4801186
:104C500021FA00F040443A4AC0F30A517A44394BF1
:104C6000A1F2FF31CB4020EA0303C0F3130040F46C
:104C70008010C1F11401C84012680190B8F1000F12
:104C8000BCBF404201902846314601F013FC054666
:104C90000E462A4633463846514600F04FFF4FF045
:104CA00000084246284B4046059101F0DDF9CDE968
:104CB0000601264A264B4046059901F0D5F9009198
:104CC00002902A4633464046059901F0F3FB3A46E6
:104CD000534601F0FDFA1F4A1F4B01F0C5F9009B36
:104CE000029A00F02BFF0746884602460B4635E045
:104CF0008E9803007AB60B000A2000000000F03FF7
:104D00004A200000701F00000000084009C7EE3F65
:104D1000FD033ADCF5015B14E02F3EBE481E0000A7
:104D20000C1E000000009040FE822B654715973C4A
:104D300000CC904000346F3F01FCFFFF0000E03FDB
:104D4000601D0000FFFF0F00432EE63F396CA80CEA
:104D5000615C20BEEF39FAFE422EE63FDDE9060136
:104D600000F0ECFEDDE9062305460E4601F0A2FB4D
:104D70003A46434601F0ACFA0F462A4633460090C5
:104D80001046194601F070F9824602462E488846C0
:104D90000B4605217844FEF7D6FE5246434601F005
:104DA00063F92A46334601F093FA80468A463B4629
:104DB00028463146009A01F057F93B46009A00F028
:104DC000BDFE0691009000224FF0804340465146C0
:104DD00001F070FB0F460C90424653462846314680
:104DE00001F042F93B460C9A00F064FF069B009AE2
:104DF00001F060FB2A46334601F05CFB0022134BB6
:104E000001F066FA054601980E4601EB00510815BF
:104E1000002810DC28463146019A01F0E1FCFEF73B
:104E20006EFE042808BFFEF7FBFE28463146019AB5
:104E300001F0D6FC05460B4618B02A4658462146D6
:104E4000BDE8F04D01F010B9F81B00000000F03F84
:104E50002DE9F041184C0F460546E6682068001D14
:104E600000F040FB38B9206890F82C1001208840F1
:104E7000216981432161681C07D137B12168BDE8F0
:104E8000F0410E48091D00F071BB20683544B54261
:104E90004560216805D2A06BBDE8F041091D00F016
:104EA0004DBB606B091D00F049FBA06A854200D232
:104EB000A562BDE8F081000048000020C805002080
:104EC0002DE9F041054600F05DFB2E4CA068401C2A
:104ED000A06020682C4F10B1606940B32DE02560C0
:104EE000A068012829D1002606EB860007EB800088
:104EF00000F016FB761C072EF6D323488C3000F00A
:104F00000FFB2148A03000F00BFB1F48B43000F02D
:104F100007FB1D48C83000F003FB1B48DC3000F0E5
:104F2000FFFA19488C3060631430A06305E02068F4
:104F3000E96AC06A884200D82560606A401C6062E5
:104F4000E96A0120226988401043206101EB810059
:104F500007EB8000291D00F009FB00F033FB6069BE
:104F600000280CD02068E96AC06A884207D2074945
:104F70004FF080500860BFF34F8FBFF36F8FBDE8D5
:104F8000F081000048000020EC04002004ED00E067
:104F900010B5044690F8510058B101280CD00228F1
:104FA0000FD0502080F31188BFF34F8FBFF36F8F66
:104FB000FEE7206B00F01AFB2046BDE8104000F031
:104FC00015BB10BD10484FF44061420706D0C01D0C
:104FD0000D4920F00700411AC1F540610B4A00233A
:104FE0000144C2E900030839183A21F007011160B1
:104FF0004B600B600B1AC0E9001393604FF0004048
:105000005360506170470000DC0500209C000020C8
:10501000144E154CA6F1C8074FF08058DFF84C909D
:1050200012E000BF00F0AEFAF068C568281D00F07D
:1050300059FAA068401EA0606068401E606000F0E1
:10504000C1FA2846FFF7A4FF60680028EAD1386853
:105050000128F9D9C9F80080BFF34F8FBFF36F8FD4
:10506000F2E70000B40500204800002004ED00E055
:105070002DE9F0479A46DDE9098481466FF0030384
:10508000206B03EB82021044089E20F0070778078C
:1050900007D0502080F31188BFF34F8FBFF36F8F7D
:1050A000FEE7002561B1002023180A5C83F8342054
:1050B0000A5C12B1401C1028F6D384F8435001E07A
:1050C00084F83450072E00D30626E662C4E9116541
:1050D000201D00F030FA04F1180000F02CFA2461D1
:1050E000C6F107006462A061E56484F8505052463E
:1050F0004946384600F0C0F82060B8F1000F01D0F2
:10510000C8F80040BDE8F08730B5114900E011460D
:105110000A688242FBD34B685C18844203D1406822
:1051200018444860084643681C18944209D1084C4A
:10513000183C2468A24209D052681A4442600A68A6
:1051400012680260814200D0086030BD0460F9E757
:105150009C0000200648416B096829B1416BC96871
:10516000C9684968816270474FF0FF31FAE7000073
:105170004800002008484068401C4FF0500080F371
:10518000118804D0BFF34F8FBFF36F8FFEE7BFF3DB
:105190004F8FBFF36F8FFEE7A40000202DE9F04191
:1051A0000546002700F0C2FA324E306808B9FFF712
:1051B00009FF706905424ED1C5B3083568070ED0A6
:1051C00005F00700C0F108000544680707D050202B
:1051D00080F31188BFF34F8FBFF36F8FFEE72DB3BE
:1051E0007068854237D82348183001460C6801E0C2
:1051F00020460C466168A94202D221680029F7D1F5
:1052000031688C4227D007682168016060680837E0
:10521000411B10290FD96019420708D0502080F394
:105220001188BFF34F8FBFF36F8FFEE713E041602C
:105230006560FFF769FF61687068401A7060B26866
:10524000904200D2B060706901430020C4E90001BF
:10525000F068401CF06000F0B1FB780707D05020E8
:1052600080F31188BFF34F8FBFF36F8FFEE738468F
:10527000BDE8F0818400002010B5031F4FF080745A
:105280001C601B1F21F001011960191F024B0B60EC
:10529000143940380A6010BD7551000810B500215E
:1052A0000848FDF707FD04210648FDF703FD082126
:1052B0000448FDF7FFFCBDE810400C210148FDF754
:1052C000F9BC000078010020FFF7E8FF41F28831C7
:1052D0004620FEF7C9FD4FF4FA6400BFFEF7ECF874
:1052E000012806D121464620FEF7BEFD03A000F0AE
:1052F000B7F80A20FEF7D8FDF0E700004B65795FAC
:105300004765744E756D2829203D3D20310D0A00FA
:105310002DE9FE4F0A250C9C0027B4FBF5F8C8F1D7
:10532000000504EB4504CDE90010A4B202943E460A
:105330003D463C4693469A4638468146404539D2DA
:105340000198C21BA8EB090092FBF0F13944CFB2DF
:105350000099891B91FBF0F13144CEB2ABEB050112
:1053600091FBF0F12944CDB2AAEB040191FBF0F0DE
:105370002044C4B20198874200D90746009886426B
:1053800000D9064658465D4500D905465046544565
:1053900000D90446314801684F6301688E63016893
:1053A000CD63006804640A20FEF77EFD09F1010068
:1053B00080B2C2E7002012E02848019902685163D8
:1053C0000268009991630268C2F83CB00068C0F8B6
:1053D00040A00A20FEF768FD09F1010080B20299A1
:1053E00081468842E8D34FF00009DFF870A024E03E
:1053F000A8EB090097FBF0F1791ACFB296FBF0F118
:10540000711ACEB295FBF0F194FBF0F0691ACDB2AF
:10541000DAF80010201AC4B24F63DAF800108E6375
:10542000DAF80010CD63DAF8000004640A20FEF711
:105430003BFD09F101001FFA80F9C145D8D3DAF824
:10544000002000215163DAF800209163DAF800208F
:10545000D163DAF800000164BDE8FE8F7801002016
:105460000FB400B599B01BAA68461A99FAF7B6FFAF
:1054700003496846FEF788FC19B05DF814FB00008C
:105480000802002000E0401C002804D00178002918
:1054900001D02029F7D970472DE9F04106460F4683
:1054A00000F022FF041E0D4618BF0120284320F003
:1054B0000040C0F17F6000F1E040C00F0ED0301C12
:1054C00018BF0120384320F00040C0F17F6000F198
:1054D000E040C00F04BF0120FBF74BFA20462946ED
:1054E000BDE8F081D0E9013201699A60D0E9012379
:1054F0005A604A68824201D182684A600022026191
:105500000868401E0860086870470000034B03608D
:1055100003F15400086080201060704750020020A2
:1055200000F108014FF0FF32C0E90112C1600161D2
:1055300000210160704700210161704730B50B68A0
:105540005A1C02D000F1080202E0026904E022467F
:10555000546825689D42FAD953684B6099608A6007
:10556000516008610168491C016030BD42684A60B1
:1055700093688B6093685960916008610168491C69
:1055800001607047502080F31188BFF34F8FBFF345
:105590006F8F0A494868401C486001280CD10848B0
:1055A000006810F0FF0F07D0502080F31188BFF380
:1055B0004F8FBFF36F8FFEE770470000A4000020FD
:1055C00004ED00E00849486828B1401E486001D158
:1055D00080F311887047502080F31188BFF34F8FFC
:1055E000BFF36F8FFEE70000A400002070B5002815
:1055F0002AD0164DA0F1080460686969084207D1F5
:10560000502080F31188BFF34F8FBFF36F8FFEE7F9
:1056100022683AB1502080F31188BFF34F8FBFF357
:105620006F8FFEE78843606000F080F8606869680B
:10563000084468602046FFF767FD2869401C286120
:10564000BDE8704000F0BAB970BD000084000020D1
:105650004FF0E02000210161816105494FF47A7229
:105660000968B1FBF2F1491E4161072101617047F0
:105670004400002010B5020014D00F48006B38B170
:10568000502080F31188BFF34F8FBFF36F8FFEE779
:1056900000F04CF800211046FFF7DAFB00F08EF91D
:1056A000002807D105494FF080500860BFF34F8FA5
:1056B000BFF36F8F10BD00004800002004ED00E034
:1056C00010B586B00024039405AA04A903A8049485
:1056D000FFF71CFFDDE903010094CDE90110002371
:1056E0000EA11048059A00F0D8F80F490028C862AA
:1056F00011D0502080F31188BFF34F8FBFF36F8F0D
:105700004FF0FF30886201204861CC6006B0BDE8F0
:10571000104000F041B806B010BD000049444C45AF
:105720000000000011500008480000200248016BF2
:10573000491C016370470000480000201448016BB9
:1057400011B10121C16170470021C1610169B1FA44
:1057500081F1C1F11F0101EB81020E4951F82230A4
:105760006BB101EB820101F108034A6852684A609B
:105770009A4201D152684A60D16801607047502056
:1057800080F31188BFF34F8FBFF36F8FFEE70000E8
:1057900048000020EC0400201CB526490878019040
:1057A000FF20087008788DF800009DF800009DF833
:1057B000002000F0F000904207D0502080F31188C4
:1057C000BFF34F8FBFF36F8FFEE79DF800001A4CB9
:1057D00000F0500020700720A06005E09DF8002038
:1057E00052008DF80020401E9DF800201206F5D4CE
:1057F000A060032807D0502080F31188BFF34F8F9B
:10580000BFF36F8FFEE74FF44070A06001980870FF
:105810000A48016841F470010160016841F070417B
:105820000160FFF715FF00206060FAF719FD002006
:105830001CBD000000E400E0A400002020ED00E01A
:105840002DE9FF5F8346DDE90E87994616468A46B5
:105850009000FFF7A3FC05001CD05420FFF79EFC2E
:10586000040014D00020256384F85100CDE90240E3
:10587000CDE900874B46324651465846FFF7F8FBC4
:105880002046FFF71DFB012004B0BDE8F09F28462D
:10589000FFF7ACFE4FF0FF30F6E7F0B585B0DDE97D
:1058A0000B640A9DA6B1DCB154270097266302263B
:1058B00084F85160002604AFCDE90246CDE90057D7
:1058C000FFF7D6FB2046FFF7FBFA049805B0F0BDC2
:1058D000502080F31188BFF34F8FBFF36F8FFEE727
:1058E000502080F31188BFF34F8FBFF36F8FFEE717
:1058F0002DE9F0412F4C0026206B28B1A069401CF7
:10590000A0613046BDE8F081E5686D1CE56013D10B
:10591000606B006838B1502080F31188BFF34F8F5F
:10592000BFF36F8FFEE7606BA16B6163A063206ABA
:10593000401C2062FFF70EFCA06ADFF87C808542E5
:1059400009D3606B0068A0B1606BC068C7687868F5
:10595000854211D2A0622068C06A00EB800158F82D
:105960002100012800D90126E0690028C9D00126BC
:10597000C7E74FF0FF30EDE7381DFFF7B3FDB86A1A
:1059800018B107F11800FFF7ADFDF96A012022698F
:1059900088401043206101EB810108EB8100391D33
:1059A000FFF7E4FDF86A2168C96A8842C9D3012675
:1059B000C7E7000048000020EC0400202DE9F04774
:1059C0002C4D00242746286B38B1FFF7DBFD286BF0
:1059D000401E2863286B40B146E0502080F31188B8
:1059E000BFF34F8FBFF36F8FFEE7A968224E0120F0
:1059F000D1B3A6F1B40980463068E8B1F068C46854
:105A000004F11800FFF76EFD201DFFF76BFDE06A43
:105A10002A6908FA00F11143296100EB800109EBC2
:105A20008100211DFFF7A2FDE06A2968C96A88424A
:105A3000E2D3C5F81C80DFE70CB1FFF78BFBAC6944
:105A400044B14646FFF754FF00B1EE61641EF9D140
:105A50000020A861E86938B10849012738070860C3
:105A6000BFF34F8FBFF36F8FFFF7ACFD3846BDE834
:105A7000F087000048000020A005002004ED00E0B1
:105A800010B500290AD00878002807D005487844C6
:105A9000FAF7CCFE002801D0002010BD024878445F
:105AA00010BD0000361000002E10000010B50029B7
:105AB0000AD00878002807D005487844FAF7B6FEDF
:105AC000002801D0002010BD0248784410BD00001D
:105AD0001A1100001211000021F00042A2F16052E0
