:020000040800F2
:1000000018220020CD0200083F3100080930000806
:100010003D310008451C0008513600080000000072
:100020000000000000000000000000003502000891
:10003000471C000800000000790200084931000850
:10004000E7020008E7020008E7020008E7020008EC
:10005000E7020008E7020008E7020008E7020008DC
:10006000E7020008E7020008E7020008E7020008CC
:10007000E7020008E7020008E7020008E7020008BC
:10008000E7020008E7020008E7020008E7020008AC
:10009000E7020008E7020008E7020008E70200089C
:1000A000E7020008D5310008E7020008E70200086F
:1000B000E7020008E7020008E7020008E70200087C
:1000C000E7020008E7020008E7020008E70200086C
:1000D000E702000839360008E70200084536000844
:1000E000E7020008E7020008E702000800F002F853
:1000F00000F090F80AA090E8000C82448344AAF132
:100100000107DA4501D100F085F8AFF2090EBAE82F
:100110000F0013F0010F18BFFB1A43F0010318473B
:10012000F044000010450000103A24BF78C878C1A0
:10013000FAD8520724BF30C830C144BF04680C60ED
:10014000704700000023002400250026103A28BF35
:1001500078C1FBD8520728BF30C148BF0B60704739
:100160006E2900F09183702900F08581662904F0E2
:100170007D81652904F07A81672904F077816129FE
:1001800004F0768103681B0A28BF41F080016929C9
:1001900000F0F680642900F0F380752900F0F0800B
:1001A0006F2900F07086782900F05181E92900F06C
:1001B0000B86E42900F00886F52900F00586EF2972
:1001C00000F06D86F82900F050810368DB0928BF34
:1001D00041F08001632901F08380732901F0888058
:1001E000E32901F09380F32901F098800020704703
:1001F0001FB500F063FE04000020002104F00AF99E
:10020000401C60600020002104F01AF9E0601FBD6E
:1002100010B510BD01F019F91146FFF7E9FF03F021
:1002200059FA01F037F903B4FFF7F2FF03BC01F00C
:100230003BF90000224B19680868B0E8F00F80F322
:100240000988BFF36F8F4FF0000080F311884EF0E4
:100250000D0E70470000000006480068006880F33B
:10026000088862B661B6BFF34F8FBFF36F8F00DFB0
:1002700000BF00BF08ED00E0EFF30980BFF36F8F10
:100280000F4B1A6820E9F00F106008B54FF05000CE
:1002900080F31188BFF34F8FBFF36F8F03F018FF08
:1002A0004FF0000080F31188BDE808401968086825
:1002B000B0E8F00F80F30988BFF36F8F704700BF7D
:1002C00024000020EFF305807047000009488047B4
:1002D00009480047FEE7FEE7FEE7FEE7FEE7FEE728
:1002E000FEE7FEE7FEE7FEE704480549054A064B40
:1002F00070470000D3310008ED00000818120020FC
:1003000018220020181A0020181A00201CB50C46CC
:10031000064B7B4469460090204600F0DEFC044614
:100320000020694600F0ECFC20461CBDEB090000F3
:1003300070B5044685690068C10601D5302600E025
:100340002026C00707D070BDD4E901213046904770
:10035000206A401C20626D1EF6D570BD70B5044643
:1003600085690078C00707D170BDD4E9012120203C
:100370009047206A401C20626D1EF6D570BD0000BB
:100380002DE9F0410646002410687529314616A56E
:1003900010D000F0E5F9002802DA404213A507E08A
:1003A00031688A0701D512A502E0490704D511A5D5
:1003B000012401E000F0DDF900210A2206F1240702
:1003C00009E0B0FBF2FCB0FBF2F302FB1C003030A2
:1003D00078541846491C0028F3D123462A46304653
:1003E000BDE8F04100F0F7B9000000002D0000006A
:1003F0002B00000020000000F0B40D460188090524
:1004000002D5214C7C4402E01F4C7C440E34002178
:1004100000F1240608E002F00F071209E75D42EA46
:1004200003721B097754491C52EA0307F3D102787F
:100430000023120704D5702D06D009B10223113410
:100440002246F0BC00F0C7B901231034F8E770B5BC
:1004500004460D462146106800F08BF902462946F5
:100460002046BDE870400023C6E7D21D22F00703F6
:10047000D3E90023C0E70368126843F02003036058
:100480000823C3610023B7E7EA4000002DE9F05FCD
:10049000894604464FF0000ADFF874B1FB44C0F807
:1004A00020A02046E1688847002874D0252806D07F
:1004B000D4E901219047206A401C2062F1E7002620
:1004C0005F462046E16888472028054607DB312D36
:1004D00005D2781910F8200C08B10643F1E7B007EF
:1004E00001D526F00406C4F81CA00027C4F818A003
:1004F0002A2D09D0284603F0D0F838B304EB87083A
:10050000303DC8F8185019E059F8041B204604EB98
:1005100087029161E1688847012F054618D1E0699B
:10052000002820DA26F020061DE0D8F8180000EB9D
:10053000800005EB40003038C8F818002046E1681C
:100540008847054603F0A9F80028EED1012F0AD00C
:100550002E2D08D12046E16888477F1C0546022FD2
:1005600046F02006C4DBA069002803DA404246F0CA
:100570000106A061F00701D026F010066C2D0BD00B
:10058000682D09D04C2D39D06A2D35D0742D35D039
:100590007A2D33D016E038E0E1682F4620468847B0
:1005A000B842054609D16C2F26D04FF48060E1682F
:1005B000064320468847054604E06C2F1AD04FF4C6
:1005C000807006430DB3A5F14100192802D82035EB
:1005D00046F400664A462946204626604E46FFF706
:1005E000BFFD80B101280BD0F61D26F0070000F1F9
:1005F000080956E74020E4E78020D8E70020D6E746
:1006000006F104094DE7284652E7206ABDE8F09F4D
:100610007A40000010B5203AC0F00B80B1E81850C5
:10062000203AA0E81850B1E81850A0E81850BFF4DC
:10063000F5AF5FEA027C24BFB1E81850A0E818507B
:1006400044BF18C918C0BDE810405FEA827C24BFCF
:1006500051F8043B40F8043B08BF7047D20728BF5D
:1006600031F8023B48BF11F8012B28BF20F8023BAC
:1006700048BF00F8012B70474FF0000200B5134649
:1006800094469646203922BFA0E80C50A0E80C50B2
:10069000B1F12001BFF4F7AF090728BFA0E80C5063
:1006A00048BF0CC05DF804EB890028BF40F8042B5C
:1006B00008BF704748BF20F8022B11F0804F18BFC9
:1006C00000F8012B704700004FF0013C50F8042B5C
:1006D00051F8043B9A4221D1A2EB0C03934313EA55
:1006E000CC1317D150F8042B51F8043B9A4215D182
:1006F000A2EB0C03934313EACC130BD150F8042B59
:1007000051F8043B9A4209D1A2EB0C03934313EA3C
:10071000CC13DBD04FF00000704700BFD01A01BAF5
:10072000B1FA81F101F0180122FA01F0CB40C1F1D8
:100730002001DBB2C0B2C01A2CFA01F3D11A9143E6
:1007400011EAC311E6D17047704770477047000047
:1007500010B500F0B3FB001D10BD00BFB93C000098
:1007600009684A0501D540B27047C905FCD500B2F9
:10077000704709684A0501D5C0B27047C905FCD564
:1007800080B2704770B50C460546012A05D028781E
:10079000800600D5EA69002302E0012305E05B1C26
:1007A000934202D2E05C0028F9D1A869E618C01A89
:1007B000A861286A184428622846FFF7B9FD04E0BA
:1007C000D5E9012114F8010B9047B442F8D328462B
:1007D000FFF7C4FD70BD2DE9F0470D4699469246DE
:1007E000044600F124080168880604D5E06921F078
:1007F0001001216000E00120A84201DD471B00E05C
:100800000027A1697A1902EB0900081AA061207873
:10081000C00602D42046FFF78BFD002608E0D4E98D
:1008200001211AF806009047206A401C761C2062BD
:100830004E45F4DB2078C0060AD52046FFF778FD48
:1008400006E0D4E9012130209047206A401C206254
:10085000381EA7F10107F4DC07E0D4E9012118F8FC
:1008600005009047206A401C2062281EA5F1010562
:10087000F3DC2046FFF772FD2078000602D5022047
:10088000BDE8F0870120FBE711680268006A5305A4
:1008900001D508700AE0D30501D5088006E01306EB
:1008A00003D5C217C1E9000200E0086001207047CB
:1008B00070472DE9FF4F0C461E464FF0FF378BB0B7
:1008C000D2E90001DDF860800A908A46C1F30A553A
:1008D00005B93D46002108464FF00000BAF1000F6F
:1008E00000F4400005DA00EB80004FF4400101EA1B
:1008F00050004FEA9059B9F1010F00DDB9460A984E
:1009000050EA4A000ED044F61050A5F2FF35454398
:100910002F14B8F1000F1ED07542291E1EDDC9F13B
:1009200000021CE0B8F1010F4FF0000001D03021AF
:1009300003E0F24305E02154401CB042FBDB3046AB
:100940000022002121540B99C1F80880C1E9002040
:100950000FB0BDE8F08FBD1B6D1CDEE74A4600DA24
:10096000694206A800F0DEFC06AB93E8070003AB83
:1009700083E8070050460A9900F09CFD8DE80700C7
:10098000A0F500501F3800900398002D0ADD42F2B8
:100990001F014A460844002303A90390684601F05A
:1009A00005F809E0A0F500504A461F38002303A9C6
:1009B0000390684601F00FF88DE807000004000C72
:1009C00003D04FF0FF30410800E01046B8F1000FAF
:1009D00003D00022009215461EE0751E05D400F0DB
:1009E00071FA303262556D1EF9D5B34601220843C3
:1009F00002D000227F1C04E02078302801D10022A0
:100A00007F1E002A099784D01DE0112D07DA00F01F
:100A100059FA303262556D1C50EA0102F5D1084393
:100A200002D00098C8B10EE00021681E05E0235CEA
:100A3000625C63542254401E491C8142F7DBAB4682
:100A4000A81B401E0990002004F80B000B98099A7F
:100A5000C0F80880C0E9002B7AE711264FF00008A3
:100A600057E72DE9F04F88460446D21D22F00701D2
:100A700091B0D1E90001CDE90A0102F0EAFD024698
:100A80000B98C00F01D02D2007E02068810701D509
:100A90002B2002E0202101EAC000032A099001D0A6
:100AA000072A05DB03464146204600F0CFFB0BE159
:100AB0002078800601D5E06900E00620B8F1650FD6
:100AC000814606D0B8F1660F18D0B8F1670F70D123
:100AD00031E00020B9F1110F009001DB112301E09A
:100AE00009F101030AAA01A90CA8FFF7E2FEDDE95A
:100AF0000C70002609F10105834647E001204B46B2
:100B000000904FF000470AAA01A90CA8FFF7D1FEF8
:100B1000DDE90DB00C995D46002610B909F1010020
:100B20000D18B9EB050003D4C0F1FF3609F101053A
:100B3000A5EB09002BE0B9F1010F01DA4FF0010933
:100B40000020B9F1110F0090484601DD112300E0AB
:100B500003460AAA01A90CA8FFF7ABFEDDE90C7059
:100B60004D4600268346207800070AD4AB4500DABC
:100B70005D4601A8012D04DD411911F8011C302941
:100B800007D04F4502DA17F1040F04DA012082463C
:100B90000FE06D1EEEE7002F02DCED1B3E4403E08C
:100BA000781CA84200DD7D1CB81B00F1010A4FF043
:100BB00000472078000703D4AA4501DB4FF0FF3A35
:100BC0000021B7F1004F0DF143088DF8431024D0F8
:100BD00002202B23002F01DA7F422D230A21021E3F
:100BE000A0F1010000DC5FB197FBF1FC97FBF1F293
:100BF00001FB1C7C17460CF1300C08F801CDEEE728
:100C0000A8F1010003702188090501D5452100E004
:100C10006521A0F1010800F8011C09980FA9A1EBBA
:100C20000807FF1D00B10120411901EBEA70A1691D
:100C30003844081A401EA0612078C00602D420461D
:100C4000FFF776FB099828B1D4E901219047206A83
:100C5000401C20622078C00622D52046FFF768FBA2
:100C60001EE0002E04DBB34502DD01A8805D00E03C
:100C70003020D4E901219047206A401C2062761C74
:100C8000AAF101005FEA000A0AD100F017F9C06872
:100C90000168405CD4E901219047206A401C206231
:100CA000281EA5F10105DCDC07E0D4E9012118F8D4
:100CB000010B9047206A401C2062381EA7F10107F3
:100CC000F3DC2046FFF74AFB032011B041E60000A9
:100CD00001694A1C02610878704700B58FB0CDE900
:100CE00001310021059105497944CDE903101146F0
:100CF0006846FFF7CBFB0FB000BD0000E5FFFFFF2C
:100D00000A6802F8010B0A60704700002DE9FF5FD6
:100D100015468A460446DFF8AC80F8440027D8E937
:100D200000103E46CDE9001010E03AF816106A4671
:100D300002A800F069FB411C07D02178890603D581
:100D4000E269391891420DD80744761C2078800654
:100D500002D5E069B84205DDAE42E6DB3AF816009E
:100D60000028E2D1A069C01BA0612046FFF7E0FA8D
:100D7000D8E90010CDE90010002017E03AF818106B
:100D80006A4602A800F040FBB0F1FF3F81460BD05D
:100D900000250DF1080B05E0D4E901211BF8050041
:100DA00090476D1C4D45F7D308F10100B0428046D5
:100DB000E4DB206A384420622046FFF7CFFABDE822
:100DC000FF9F00000E3800002DE9F0418046D21D43
:100DD00022F007020025D2E90002F52915A614D059
:100DE000011E72F1000106DA0023D0EB030063EB71
:100DF000020211A608E0D8F800108B0701D50FA653
:100E000002E0490701D50EA601251146002408F18C
:100E1000240704E000F056F830323A55641C50EADA
:100E20000102F7D12B46324621464046BDE8F0414B
:100E3000FFF7D1BC000000002D0000002B000000D7
:100E40002000000030B4002100F1240408E002F08A
:100E50000705D208303542EA4372DB086554491C65
:100E600052EA0305F3D10468002310A2250707D531
:100E7000A40600D421B1C46901230DA2641EC4617B
:100E800030BCFFF7A8BC10B5044621461068FFF738
:100E900070FC02462046BDE810400023D2E7D21D78
:100EA00022F00701D1E90023CCE700000000000098
:100EB0003000000000487047B8110020004870471B
:100EC000D811002030B5B0F10A024FEA900E71F14E
:100ED00000034EEA817EB0EB0E0061EB91014FEA18
:100EE000101E4EEA017E10EB0E0041EB11114FEA8D
:100EF000102E4EEA016E10EB0E0041EB11214FEA6D
:100F0000104E4EEA014E10EB0E0041EB114140181D
:100F100041F100014FEAD00040EA41704FEAD101AF
:100F200010EB80054FEA810444EA907444EB01041D
:100F30006D1944EB0404521BA3414FF0000348BF5A
:100F40000A3200D530BD401C41F1000130BD000027
:100F50002DE9F04F04460D46D21D22F0070089B05E
:100F6000D0E900974846394602F073FB0246F80F75
:100F700001D02D2307E02068810701D52B2302E053
:100F8000202101EAC0038DF820300BB1012000E0E0
:100F90000020032A824601D0072A04DB2946204686
:100FA00000F054F93FE12078800601D40D2500E0DF
:100FB000E569C7F30A560D2D49DA00214FEA175BA0
:100FC00008464FF00000002F00F4400007DA00EB65
:100FD00080004FF4400100EBD07001EA6000811501
:100FE000012901DD4FF0FF3100224FEA850CBCF1F1
:100FF000180F06D31346ACF118004FF08052C240D0
:1010000003E04FF4801323FA0CF30CF10C0CBCF149
:10101000200F04D3ACF1200C09FA0CF001E007FA20
:101020000CF000294FF0004801DD18B90FE00ED197
:1010300040450CD319EB02095F4121B9404502D16B
:101040009F4329EA0209BBEB175F00D0761C20887A
:10105000000502D57B48784402E07A487844193884
:1010600008AA302302F80A30037C0AF10101002E9D
:101070000AF1020A53546A4602DC4FF0300101E0E3
:101080004FF031014FF001088DF8001002D0A6F2A8
:10109000FF3603E059EA470100D06B4E002D02DC19
:1010A0002178090704D54FF002082E218DF8011090
:1010B000C44600210BE0C7F303433F01C35C491C56
:1010C0006D1E02F80830052908F1010801DA002D2B
:1010D000F1DC00210CE000EB1973491C1B786D1E3C
:1010E000082902F808304FEA091908F1010801DA65
:1010F000002DF0DC21688B0602D516E0A8F101086E
:10110000E04505DD02EB080313F8013C302BF5D078
:10111000B8F1000F09DD02EB080313F8013C2E2B98
:1011200003D1090701D4A8F10108002D05DD3E21F6
:1011300002F808106D1E08F10108407C002E02F82C
:10114000080008F1010804DA2D20764202F80800B0
:1011500002E02B2002F808000A214FF47A70864240
:1011600008F101080BDB96FBF0F3303302F808308E
:1011700096FBF0F308F1010800FB136601E0642E12
:101180000CDB642096FBF0F3303302F8083096FB5A
:10119000F0F308F1010800FB136601E00A2E06DBFC
:1011A00096FBF1F0303002F8080008F1010896FBD8
:1011B000F1F001FB1060303002F80800A16908F17D
:1011C000010808EB050202EB0A00081AA06120786A
:1011D000C00602D42046FFF7ABF8216A08AE01EB47
:1011E0000A00206204E0D4E9012116F8010B9047BF
:1011F000BAF1010AF7D22078C00602D52046FFF7DF
:1012000097F86E4609E016F8010B3E280FD0D4E996
:1012100001219047206A401C2062B8F10108F2D2F7
:101220002046FFF79BF809B00320BDE8F08F206A45
:101230002844206203E0D4E90121302090476D1E4C
:10124000EBD3F8E7ED34000002FCFFFF2DE9F0419D
:101250001F46044603260168072A01F4006004DBE8
:1012600008B116A505E016A503E008B115A500E034
:1012700015A521F010002060A069C01EA0610FB16B
:10128000401EA0612046FFF753F84FB1D4E9012179
:1012900038469047206A401C2062C01C206206E04D
:1012A000206AFAE7D4E9012115F8010B9047761E70
:1012B000F8D22046FFF752F8BDE8F0814E414E00CB
:1012C0006E616E00494E4600696E660010B5436956
:1012D00013B1AFF3008001E0FFF754FA012010BD15
:1012E000127800F124010A7000224A700122EDE711
:1012F00011684FF0FF32E9E710B5436913B1AFF35E
:10130000008001E0FFF702FD012010BD128800F10E
:10131000240182840022C2840122EDE711684FF08B
:10132000FF32E9E72DE9F047814616468AB0354895
:1013300078440DC88DE80D0032487844801C03AC19
:101340000DC884E80D0041F69B300844372190FB1E
:10135000F1F290FBF1F5A5F1800501FB12041B3CB5
:1013600002D56442012000E00020DFF898A080460A
:101370000027FA44AAF1BE0A0EE0E0070AD032467E
:10138000684607EB470101230AEB810100F023FBCC
:101390008DE8070064107F1C002CEED1194F7F44AC
:1013A000AE3F19E0E80715D007EB04100DF1180A5D
:1013B00090E80E008AE80E00C068F04201D198194A
:1013C00008903246012306A903A800F004FB03ABF2
:1013D00083E807006D10641C002DE3D14FF001037A
:1013E00032466946B8F1000F03A802D000F0DEFAD9
:1013F00001E000F0F0FAC9E90001C9F808200AB0DC
:10140000BDE8F087A432000070B516460C460546CC
:10141000FFF79EF9036893F80101012806D0FF2C1D
:101420000FD8185D68B101202C7070BDD3F807018A
:101430003246214603F2071303442846BDE87040B4
:1014400018474FF0FF3070BD70477546FFF732FD0B
:10145000AE4605006946534620F00700854618B0A1
:1014600020B5FEF741FFBDE820404FF000064FF0E9
:1014700000074FF000084FF0000B21F00701AC46C9
:10148000ACE8C009ACE8C009ACE8C009ACE8C009E8
:101490008D46704710B50446AFF300802046BDE886
:1014A0001040FEF7C0BE000001491820ABBEFEE7A9
:1014B000260002005FEA400C08BF91F0000F4FEADF
:1014C0008C234FEAC12243EA51514FEA1C5018BF06
:1014D00000F5F0404FEA300018BF41F000415FEAEC
:1014E0006C5C00F02980BCF1FF3F08BF40F08040F9
:1014F0007047130C06BF12044FF0100C4FF0000C95
:10150000130E04BF12020CF1080C130F04BF1201DA
:101510000CF1040C930F04BF92000CF1020CD30FDA
:1015200004BF52000CF1010C11464FF00002A0F173
:101530001F00A0EB0C00704711F0004F08BF704770
:1015400031F000413FF4D5AF0B0C06BF09044FF05A
:10155000100C4FF0000C0B0E04BF09020CF1080C2C
:101560000B0F04BF09010CF1040C8B0F04BF8900A1
:101570000CF1020CCB0F04BF49000CF1010CCCF1B3
:101580002003A0EB0C0022FA03F302FA0CF241EA6A
:10159000030100F10100704720F07F4C80EA030056
:1015A00023F07F47ACEB070303F57C5300F00040CA
:1015B00003F1FF032DE980494FEA154B09B44FEAC7
:1015C000144325EA0B4E24EA03480FF2042606EBE7
:1015D000132749083E785FEA320203FB0667C7F526
:1015E000000707FB06F64FEA54374FEAD64606F1E6
:1015F000020607FB066CCCF1005C4FEA1C472CEAA4
:10160000074C07FB06F40CFB06F504EB15464FEA06
:10161000961634BF00204FF000404FEAD13706FB4A
:1016200007FC4FEA1C4C0CFB0BF7D21B03FB0CF71F
:1016300061EB07010CFB0EF7B0EB074072EB1742B2
:101640000CFB08F734BFA2EB0742B2EB074261EB99
:1016500017414FEA0C444FEA910706FB07FC4FEA9B
:101660001C4C0CFB0BF7B0EBC74072EB573203FB83
:101670000CF734BFA2EBC742B2EBC74261EB573164
:101680000CFB0EF7B0EBC70072EB57720CFB08F7C0
:1016900034BFA2EBC702B2EBC70261EB5771039FE5
:1016A0004FEA816141EA921104EBCC044FEAD13751
:1016B0004FEA826206FB07FC42EA90124FEA806022
:1016C0004FEA1C4C0CFB0BF7D21B03FB0CF761EB36
:1016D00007010CFB0EF7B0EB074072EB17420CFB57
:1016E00008F734BFA2EB0742B2EB074261EB1741A8
:1016F0004FEA8C554FEA910704EB9C2406FB07FC4C
:101700004FEA1C4C0CFB0BF7B0EBC74072EB5732A7
:1017100003FB0CF734BFA2EBC742B2EBC74261EB4D
:1017200057310CFB0EF7B0EBC70072EB57720CFB96
:1017300008F734BFA2EBC702B2EBC70261EB5771E7
:1017400015EB4C254FEA816141EA92114FEA826222
:101750004FEAD13742EA901206FB07FC44F100043D
:101760004FEA80604FEA1C4C0CFB0BF7D21B03FBCB
:101770000CF761EB07010CFB0EF7B0EB074072EBC7
:1017800017420CFB08F734BFA2EB0742B2EB07424B
:1017900061EB174115EB1C154FEA813141EA92418B
:1017A0004FEA823242EA90424FEA80304FEA0C76AA
:1017B00044F1000448EA03434EEA0B484FF0000EA0
:1017C000B2EB080C71EB030724BF624639464EEBBF
:1017D0000E0E4FF0000B0018524149414BEB0B0B22
:1017E000B2EB080C71EB03077BF1000B24BF6246E0
:1017F00039464EEB0E0E4FF0000B00185241494196
:101800004BEB0B0BB2EB080C71EB03077BF1000BFE
:1018100024BF624639464EEB0E0E51EA020718BF4E
:1018200046F0010616EB0E7655F1000254F1000168
:1018300003D5BDE88901BDE80088BDE88901BDE8A0
:101840000048B619524141EB0101A3F10103704771
:1018500080807F7E7D7C7B7A7978777676757473ED
:10186000727171706F6E6E6D6C6C6B6A6A696868AC
:10187000676666656464636362616160605F5F5E42
:101880005E5D5D5C5C5B5B5A5A59595858575756B8
:10189000565555555454535352525251515050501D
:1018A0004F4F4F4E4E4D4D4D4C4C4C4B4B4B4A4A6F
:1018B0004A494949484848474747474646464545B3
:1018C00045444444444343434342424242414141EC
:1018D000002B9C4630D477002BD01CB54FEA37073D
:1018E00003B44FF010004FF01001BAF1000F06D012
:1018F000BCF1000FDCBF40F0080040F008014FF0E1
:1019000000000FBCBDE810400BF1010BBBF1010F53
:1019100008BF5FEA170722BF12F1010211F10101AE
:101920004FF0004143F1000300F0004043EA0000A3
:101930007047F9D35708D0E746EA064613F1400F3F
:101940004FEA16461FDD13F1200FDFBF16430A468C
:10195000002120335B42BED0C3F1200746EA064691
:1019600002FA07F74FEA164646EA0706C3F12007D0
:1019700022FA03F201FA07F721FA03F14FF000030C
:1019800042EA0702A7E746EA020646EA06464FEAA7
:10199000164646EA0106BCBF46EA0646360C4FF03C
:1019A00000034FF000024FF0000194E72DE9804C56
:1019B0009A46934670B491E8380007C831EA400C63
:1019C00048BF34EA430C03D5FFF7E6FDFFF780FF7D
:1019D000F0BCBDE8008C2DE9804C9A46934670B46B
:1019E00091E8380007C810F0804F08BF13F0804F0F
:1019F00003D100F005F8FFF76BFFF0BCBDE8008CE9
:101A000020F07F4780EA030023F07F4C07EB0C03B4
:101A1000A3F57C5300F00040A3F1FE0392F0000F09
:101A200000F0B38095F0000F00F077802DE90149B8
:101A30004FEA11404FEA144621EA004800FB06FC39
:101A400024EA064708FB06F607FB08F800FB07F741
:101A500018EB06484CEB164C4FEA124B18EB0748B4
:101A60004FEA15464CEB174022EA0B4E0BFB06FCE7
:101A700025EA06470EFB06F607FB0EFE0BFB07F7F3
:101A80001EEB064E4CEB164C4FF000061EEB074EBD
:101A90004CEB174B18EB0B0840F1000018EB0E0B4A
:101AA00058EB000840F100008F1A4FF000013CBFD6
:101AB000C943661B14BFB5EB040C00213CBFC943EE
:101AC000F61B4FEA17444EEA8E0E27EA04454FEA0A
:101AD0001C4704FB07622CEA074C05FB07F70CFBCD
:101AE00005F604FB0CFC16EB074642EB174216EB1F
:101AF0000C4642EB1C421BEB060658EB020241412E
:101B000046EA9E0601D5BDE80189B619524141EB6E
:101B10000101A3F10103BDE801894FEA14454FEA31
:101B2000114724EA054621EA074C05FB07F406FBAA
:101B300007F70CFB06F105FB0CFC11EB074144EB2E
:101B400017444FEA124711EB0C4144EB1C4422EAC4
:101B5000074C05FB07F206FB07F70CFB06F605FB37
:101B60000CFC16EB074642EB174216EB0C4642EB19
:101B70001C456A1854F1000148BF7047B61952411C
:101B800041EB0101A3F10103704795F0000F37D03D
:101B90004FEA11424FEA144721EA024624EA074C71
:101BA00002FB07F106FB07F70CFB06F402FB0CFC3B
:101BB00014EB074441EB17414FEA154714EB0C4473
:101BC00041EB1C4125EA074C02FB07F506FB07F732
:101BD0000CFB06F602FB0CFC16EB074645EB174523
:101BE00016EB0C4645EB1C42121951F1000148BF9F
:101BF0007047B619524141EB0101A3F1010370474F
:101C00004FEA14454FEA114724EA054621EA074CFA
:101C100005FB07F106FB07F70CFB06F24FF0000689
:101C200005FB0CFC12EB074241EB174112EB0C4297
:101C300051EB1C4148BF7047921841EB0101A3F1E1
:101C400001037047FEE7704710B590F8211000229D
:101C5000022905D00421816380F82020012010BDD5
:101C600001680B6823F00E030B6001680B6823F01A
:101C700001030B6090F84030C46B012101FA03F3BB
:101C8000636080F8211080F82020104610BD00000D
:101C900010B590F821100024022903D0042181639B
:101CA00001243DE001680A6822F00E020A60016822
:101CB0000A6822F001020A601A4A0168914201D1C1
:101CC000012121E0174A1432914201D110211BE079
:101CD000144A2832914201D1891515E0114A3C324B
:101CE000914201D189140FE00E4A5032914202D143
:101CF0004FF4803108E00B4A6432914202D14FF434
:101D0000801101E04FF08071064A083A51600121CC
:101D100080F82110002180F82010416B01B1884724
:101D2000204610BD080002402DE9F84FDFF8B891B9
:101D30000024A9F1040B23460F2709F1040AABF193
:101D4000040EC9E00125A5402A40AA427DD1674E74
:101D5000D1F804C0ACEB0608B44532D014DCBCF1B9
:101D6000030F3AD009DCBCF1000F2AD0BCF1010FFF
:101D70001CD0BCF1020F31D11DE0BCF1110F17D006
:101D8000BCF1120F2AD119E0B8F5881F19D006DC72
:101D9000B8F5803F15D0B8F5801F1FD111E0B8F518
:101DA000001F0ED0B8F5041F18D10AE0CB6815E06B
:101DB000CB681B1D12E0CB6808330FE0CB680C33F7
:101DC0000CE08B682BB1012B4FF0080303D0456169
:101DD00004E0042302E0056100E00023FF2A01D8AB
:101DE000064601E000F104064FEA840501D9A5F199
:101DF0002005D6F8008007FA05FC28EA0C0803FA4B
:101E000005F548EA0508C6F800804D68ED0062D582
:101E1000374DAE6946F00106AE61AD6924F00306A8
:101E200005F001050095334D06EB050CDCF8085074
:101E3000A607360F07FA06F825EA0805DFF8B88086
:101E4000404503D14FF0000817E044E0DFF8AC80D4
:101E5000404502D14FF001080FE0DFF8A480404573
:101E600002D14FF0020808E0DFF89880404502D127
:101E70004FF0030801E04FF0040808FA06F848EABA
:101E80000508CCF808804D68D9F80060ED024D4691
:101E900001D5164300E096432E604D68DAF80060E5
:101EA000AD02554601D5164300E096432E604D68BD
:101EB000DBF80060AD035D4601D5164300E09643B4
:101EC0002E604D68DEF80060ED03754601D51643BF
:101ED00000E096432E60641C0D682A46E5407FF4BE
:101EE00031AFBDE8F88F0000080401400000111078
:101EF000001002400000014000080140000C0140B9
:101F000000100140001401408068084000D001200A
:101F100070470000014880687047000014000020EE
:101F200002488168027811448160704714000020E3
:101F3000074810B5016841F010010160032000F06E
:101F4000A1F80F2000F006F800F04AF8002010BDBC
:101F50000020024030B505461C4887B0816941F435
:101F600000618161806906A900F40060009001A809
:101F700000F030F900F05EF91549164AB0FBF1F1B6
:101F80001548491E0260416040F2E7320021C0E975
:101F900003218160816100F049FB040012D10E48E9
:101FA00000F072FB04000DD1192000F03DF8102D57
:101FB00007D200222946192000F044F8074805609E
:101FC00000E0012407B0204630BD000000100240B0
:101FD00040420F00002C0140800400201800002027
:101FE0000F4808B5816941F001018161816901F003
:101FF00001010091C16941F08051C161C0690022B5
:1020000000F0805000900F21901E00F01BF8054852
:10201000416821F0E06141F00071416008BD0000BD
:102020000010024000000140002809DB00F01F0200
:10203000012191404009800000F1E020C0F800112A
:1020400070470000F0B40E4B1B680C46C3F302232C
:10205000C3F10705042D00D90425191D072901D254
:10206000002300E0DB1E012606FA05F1491E21408F
:1020700099409E40761E16403143F0BC01F0FDBAF7
:102080000CED00E0064900F0070208684FF6FF0378
:10209000184040EA0220034A1043086070470000DD
:1020A0000CED00E00000FA052DE9F0470F460500B1
:1020B00061D0434E306800F00700B84209D2306862
:1020C00020F0070038433060306800F00700B84265
:1020D00051D128683B4C810712D5400703D5606871
:1020E00040F4E06060602878000703D5606840F441
:1020F000605060606068A96820F0F000084360608C
:102100002878C00728D06868012810D021680228E4
:1021100010D0890700292EDA616821F003010143FC
:102120006160FFF7F7FE804641F288390DE02168D3
:102130008903EFE78901EDE7FFF7ECFEA0EB08016B
:10214000494502D90320BDE8F0876068696800F05E
:102150000C00B0EB810FEFD1306800F00700B842FF
:102160000BD9306820F0070038433060306800F049
:102170000700B84201D00120E5E72878400705D5DF
:102180006068E96820F4E060084360602878000730
:1021900006D56068296920F4605040EAC10060609B
:1021A00000F058F86168084AC1F30311515CC84057
:1021B0000649086006480068FFF7CCFE0020C2E729
:1021C0000020024000100240DA44000820000020F5
:1021D000180000200F2202600C4A536803F003032A
:1021E0004360536803F0F0038360536803F4E063D3
:1021F000C36052684FF4E06303EAD202026104480C
:10220000006800F0070008607047000000100240FE
:10221000002002400448054900684968044AC1F3A7
:102220000221515CC840704720000020001002408D
:10223000EA4400080448054900684968044AC1F3B3
:10224000C221515CC84070472000002000100240AD
:10225000EA4400080E4A51680E4801F00C03042BB2
:1022600011D0082B0FD10C48C1F38343C903C05CC4
:102270000AD55168084AC1F34041921E515C054A93
:102280005043B0FBF1F070470449484370470000E9
:102290000010024000127A00CA44000800093D0004
:1022A0002DE9F84F040070D02078C04DC00749D008
:1022B0006868C0F38100012807D06868C0F3810016
:1022C000022809D16868C00306D52868800339D57B
:1022D00060680028E7D035E06068B0F5803F0BD03B
:1022E00010B1B0F5A02F11D0286820F480302860FC
:1022F000286820F4802002E0286840F480302860BC
:10230000606890B1FFF706FE06460AE0286840F4D0
:1023100080202860F0E700BFFFF7FCFD801B6428E9
:1023200073D828688003F7D50CE0FFF7F3FD064665
:1023300005E000BFFFF7EEFD801B6428F0D8286899
:102340008003F7D420789A4E80074FF001094FF0B0
:10235000000839D5686810F00C0F07D06868C0F322
:102360008100022809D16868C00306D42868800764
:1023700014D52069012808D110E02069B0B1C6F851
:102380000090FFF7C7FD074605E00AE1FFF7C2FD31
:10239000C01B0228C4D828688007F7D5286861695F
:1023A00020F0F80040EAC10028600DE0C6F8008087
:1023B000FFF7B0FD074604E0FFF7ACFDC01B0228A5
:1023C00023D828688007F7D4207800072CD57948CF
:1023D000A169D9B1C0F80090FFF79CFD074604E061
:1023E000FFF798FDC01B02280FD8686A8007F7D551
:1023F00071484FF4FA510068B0FBF1F0009000BF53
:102400000098411E0091FAD20EE080E0C0F80080F2
:10241000FFF780FD074604E0FFF77CFDC01B0228A4
:1024200075D8686A8007F7D42078400760D5E869D6
:102430000027C00008D4E86940F08050E861E869EE
:10244000012700F0805000905C480168C90513D452
:102450000168834641F480710160FFF75BFD8246AD
:1024600006E000BFFFF756FDA0EB0A0064284ED837
:10247000DBF80000C005F5D5E06801280AD008B1F6
:10248000052813D0286A20F001002862286A20F06D
:10249000040002E0286A40F001002862E06841F28E
:1024A000883B98B1FFF736FD82460BE0286A40F082
:1024B00004002862EEE700BFFFF72CFDA0EB0A0145
:1024C00059455AD8286A8007F6D50CE0FFF722FD57
:1024D000824605E0FFF71EFDA0EB0A0159454CD8E6
:1024E000286A8007F6D41FB1E86920F08050E861BF
:1024F000E06988B36968C1F38101022944D00228E8
:10250000C6F8608004D0FFF705FD044638E034E0EB
:10251000FFF700FD074604E0FFF7FCFCC01B0228A4
:102520002BD828688001F7D4206AB0F5803F05D108
:102530006868A16820F4003008436860D4E90801A5
:102540000843696821F4741108436860C6F8609014
:10255000FFF7E0FC044606E025E000BFFFF7DAFCE9
:10256000001B022809D828688001F7D51BE000BFAE
:10257000FFF7D0FC001B022802D90320BDE8F88F2A
:1025800028688001F4D40EE00128F7D06868226A38
:1025900000F48031914204D1616A00F470108842E5
:1025A00001D00120EAE70020E8E700000010024027
:1025B000000042428004424220000020007000409F
:1025C0007047704770B590F83C20012A26D001244E
:1025D00080F83C40022280F83D2003685A689D68DC
:1025E00022F070060A6832435A600D4B02689A4224
:1025F00008D0B2F1804F05D00A4B9A4202D00A4B64
:102600009A4204D1496825F080031943916080F80B
:102610003D40002180F83C10084670BD022070BD8E
:10262000002C0140000400400008004010B50400E8
:1026300003D094F83D0010B107E0012010BD002048
:1026400084F83C00204600F01EF8022084F83D008B
:10265000211D206800F0C4FD012084F8460084F8A4
:102660003E0084F83F0084F8400084F8410084F87C
:10267000420084F8430084F8440084F8450084F85C
:102680003D00002010BD704790F83D10012901D099
:1026900001207047022180F83D100168CA6842F0AD
:1026A0000102CA6000680B49884208D0B0F1804F2F
:1026B00005D00949884202D00849884204D181687E
:1026C00001F00701062903D0016841F00101016012
:1026D00000207047002C014000040040000800402A
:1026E00070472DE9F04104460068C66805694FF05F
:1026F0000007A90713D5B10711D5F91E0161012003
:102700002077206880698007204602D0FFF7E8FF25
:1027100004E000F0A5F8204600F04AF927776807A2
:1027200016D5700714D521686FF0040008610220E7
:1027300020772068806910F4407F204602D0FFF7A0
:10274000CFFF04E000F08CF8204600F031F9277745
:10275000280715D5300713D521686FF008000861E8
:10276000042020772068C0698007204602D0FFF748
:10277000B7FF04E000F074F8204600F019F927775D
:10278000E80616D5F00614D521686FF01000086130
:10279000082020772068C06910F4407F204602D0CE
:1027A000FFF79EFF04E000F05BF8204600F000F920
:1027B0002777E80708D0F00706D021686FF00100FE
:1027C0000861204600F044F9280608D5300606D5F1
:1027D00021686FF0800008612046FFF7F1FE68066F
:1027E00008D5700606D521686FF0400008612046C4
:1027F00000F038F9A8060AD5B00608D521686FF0B0
:10280000200008612046BDE8F041FFF7DABEBDE8D0
:10281000F081000000B585B0002100910191029186
:10282000039100680B49884212D10B48816941F03D
:10283000080181618069694600F0080004904FF446
:10284000707000900220019003900448FFF76CFA2A
:1028500005B000BD0008004000100240000C01401F
:10286000704770B5044690F83C0000260D460128DC
:102870000FD0012084F83C006AB1042A1DD0082A38
:102880002FD00C2A3FD00126002084F83C0030468F
:1028900070BD022070BD206800F0ECFC20688169EA
:1028A00041F0080181612068816921F004018161A2
:1028B000206881692A69114311E0206800F002FD57
:1028C0002068816941F4006181612068816921F497
:1028D00080618161206881692A6941EA0221816100
:1028E000D2E7206800F01AFD2068C16941F00801B4
:1028F000C1612068C16921F00401C1612068C1691A
:102900002A69114311E0206800F034FD2068C16994
:1029100041F40061C1612068C16921F48061C16135
:102920002068C1692A6941EA0221C161ACE710B59A
:10293000040003D094F83D0010B107E0012010BD61
:10294000002084F83C00204600F01EF8022084F8A5
:102950003D00211D206800F043FC012084F8460062
:1029600084F83E0084F83F0084F8400084F8410079
:1029700084F8420084F8430084F8440084F8450059
:1029800084F83D00002010BD08B500680649884263
:1029900008D10648C16941F00401C161C06900F075
:1029A0000400009008BD0000000800400010024034
:1029B0007047000010B50446022249B104290ED028
:1029C000082913D094F84100012816D0012010BD29
:1029D00094F83E000128F9D184F83E200FE094F8E5
:1029E0003F000128F2D184F83F2008E094F840002D
:1029F0000128EBD184F8402001E084F84120012235
:102A0000206800F029FC0F492068884203D1426CFD
:102A100042F4004242642068884208D0B0F1804FFE
:102A200005D00949884202D00849884204D181680A
:102A300001F00701062903D0016841F0010101609E
:102A4000002010BD002C01400004004000080040A0
:102A500000680349884201D1FFF762BA704700005D
:102A6000002C01407047704770470000F8B50168BE
:102A700004460868CA684B6910F00F0F4FF0000554
:102A800059D003F0010602F49077374365D0C107AF
:102A900005D0D10503D5616C41F0010161644107A6
:102AA00005D5D90703D0616C41F00201616481074B
:102AB00005D5D90703D0616C41F0040161640107B9
:102AC00007D502F02001314303D0616C41F00801C9
:102AD0006164616C00293AD0800604D5900602D565
:102AE000204600F098FC20684069616CC0F38010BB
:102AF000090700D460B3204600F066FC20684069F6
:102B0000400621D52068143050E8001F21F0400114
:102B100040E80012002AF5D1E06BA8B16D4941638D
:102B2000E06BFFF7B5F8002811D0E06B416B01B006
:102B3000BDE8F040084783060FD593060DD5204623
:102B4000BDE8F84000F067BC2046FFF78DFFF8BDF8
:102B50002046FFF789FF6564F8BD266B2023012E10
:102B60007CD1C6067AD5D60678D508684868009024
:102B700048694FF00206400640D5E16B086840689E
:102B80000004000CE8D0A28D8242E5D9E085886976
:102B900020282DD020680C3050E8001F21F48071CF
:102BA00040E80012002AF5D12068143050E8001FD8
:102BB00021F0010140E80012002AF5D1206814300C
:102BC00050E8001F21F0400140E80012002AF5D132
:102BD00084F84230256320680C3050E8001F21F053
:102BE000100140E80012002AF5D1E06BFFF72CF845
:102BF0006663A08DE18D401A81B22AE0A08DE18D3F
:102C0000401A81B2E08D0028A6D00029A4D0226805
:102C10000C3252E8000F20F4907042E80007002FB9
:102C2000F5D12068143050E8002F22F0010240E86E
:102C30000027002FF5D184F84230256320680C303E
:102C400050E8002F22F0100240E80023002BF5D1BD
:102C500066632046FFF707FFF8BDFFE705062BD5A3
:102C6000150629D594F841002128F5D1A068B0F5C2
:102C7000805F01D12069B0B1206A411C21622168C6
:102C800000784860E08C401E0004000CE084E3D132
:102C90002068C16821F08001C1602068C16841F0EE
:102CA0004001C160D8E7206A0088C0F3080048608E
:102CB000206A801C2062E5E74006CDD55006CBD5C2
:102CC000CA68204622F04002CA6084F8413000F011
:102CD00069F9C1E7B933000870B5040004D094F86D
:102CE0004100002510B106E0012070BD84F840507D
:102CF000204600F023F8242084F841002068C168B1
:102D000021F40051C160204600F0E6FB2068016913
:102D100021F4904101612068416921F02A0141615B
:102D20002068C16841F40051C1606564202084F8C6
:102D3000410084F842006563002070BD70B586B024
:102D40000024009401940294039403682E482D4EAD
:102D5000022103220515B34226D1836943F480433F
:102D60008361836903F480430493836943F004031C
:102D700083618069254E00F0040004900802CDE9CB
:102D80000001039269463046FEF7CEFFCDE90054BC
:102D9000694630460294FEF7C7FF00220521252030
:102DA000FFF750F9252028E0194EB34227D1C36917
:102DB00043F48023C361C36903F4802304938369CC
:102DC00043F0080383618069CDE9005100F00800F9
:102DD000CDE903200F4D69462846FEF7A5FFE8140C
:102DE000CDE90004694628460294FEF79DFF0022C3
:102DF00005212720FFF726F92720FFF715F906B050
:102E000070BD000000380140001002400008014081
:102E100000480040000C014090F84230202B01D0C7
:102E20000220704721B11AB10023036300F0B0BB48
:102E3000012070472DE9F04107462E480025012664
:102E40002D4C4FF00208874225D1E179A2783AB1A2
:102E500020462A4BC078012A09D0022A10D014E05B
:102E6000402912D1607980B9A670E5700DE0232960
:102E700003D01954401CE07007E084F8028004E09D
:102E80002E2902D1A5701D5466711B490122C91D4E
:102E90001848FFF7C1FF1A48874228D1A079217846
:102EA00031B1164A643A012909D0022911D016E03D
:102EB000402814D1207990B9267065700FE023283E
:102EC00004D061785054491C617008E084F8008097
:102ED00005E02E2803D12570607815542671BDE8D1
:102EE000F04105490122891D0548FFF795BFBDE85E
:102EF000F0810000E401002000000020F00000202C
:102F00009C0100202DE9F843044690F841009846C2
:102F100016460D46202802D00220BDE8F88385B170
:102F20007EB100206064212084F84100FEF7F2FFAA
:102F3000A6848146E684A0682027B0F5805F02D091
:102F400003E00120E9E7206910B12E4600250EE0DC
:102F500000260CE08021204600F035FBA8B9C6B160
:102F600016F8010B21684860E08C401EE084E08C7C
:102F70004B464FF00002CDF800800028EAD14FF018
:102F80004001204600F01FFB40B184F8417003204F
:102F9000C3E735F8020BC0F30800E3E784F841709B
:102FA0000020BAE77047000010B50A4C607901288C
:102FB0000FD109A00E4900F080FB0EA10E48FDF7CD
:102FC00083FB20B941F28831462000F0E5FB002068
:102FD000607110BD00000020676574206368617235
:102FE00020696E2048435F30355F52554E0D0A0010
:102FF000E401002072756E00F0000020FFF7D4FF9E
:103000000A2000F0E9FBF9E7FEE7000070B50C4D7F
:103010004FF40046002431462846FEF775FF60B99C
:103020000A2000F0D9FB31462846FEF76DFF002844
:10303000F9D00A2000F0D0FB0124204670BD00002A
:103040000008014000B585B0002001900290039077
:103050001048816941F020018161816901F02001FE
:103060000491816941F008018161816901F00801E1
:103070000491816941F0040181618069694600F031
:10308000040004904FF4004000900348FEF74CFE0B
:1030900005B000BD001002400008014010B58AB024
:1030A000002407941C2168460894FDF7E5FA22489D
:1030B000204901602321C0E901146321C0E9031400
:1030C00080218161FFF733FC08B172B6FEE70794F7
:1030D00007A919480894FFF775FA08B172B6FEE718
:1030E0006020CDE90004029400226946124804944D
:1030F000FFF7B7FB08B172B6FEE7042269460E4837
:10310000FFF7AFFB08B172B6FEE7082269460A482E
:10311000FFF7A7FB08B172B6FEE70C226946064826
:10312000FFF79FFB08B172B6FEE70348FFF772FB9B
:103130000AB010BD0008004054010020FEE7FEE781
:10314000012000F049FBFBE710B5502080F3118807
:10315000BFF34F8FBFF36F8F01F094F818B104499C
:103160004FF080500860002080F3118810BD0000EF
:1031700004ED00E030B58FB028216846FDF77CFAF9
:1031800014210AA8FDF778FA01210804CDE90010FE
:103190000024029402250491CDE907504FF4E01079
:1031A00009906846FFF77CF808B172B6FEE70F2079
:1031B000CDE90A054FF48060CDE90C4002210AA850
:1031C0000E94FEF771FF002801D072B6FEE70FB033
:1031D00030BD70470148FFF784BA0000800400202A
:1031E000F0B50268194B1A4C1A4D4FF080479842BF
:1031F00005D0B84203D0A04201D0A84203D122F0AA
:1032000070064A683243984205D0B84203D0A042C3
:1032100001D0A84203D122F44074CA6822434C6909
:1032200022F08002224302608A68C2620A688262D7
:10323000984201D109690163012141610169C9070E
:1032400003D0016921F001010161F0BD002C0140B2
:10325000000400400008004010B501F01F030121E8
:10326000046A99408C430462016A9A4011430162E6
:1032700010BD000030B5036A026A22F0010202624A
:103280004268846924F073050C682C4323F002051E
:103290008B682B430A4DA8420BD123F00805CB685D
:1032A00022F440722B434D6923F0040315438A69CD
:1032B0002A434260846149684163036230BD000073
:1032C000002C014030B5026A036A23F01003036248
:1032D000436884690D6824F4E64444EA05248D6853
:1032E00022F0200242EA05120B4DA8420ED1CD6811
:1032F00022F0800242EA05124D6923F4406343EA5A
:1033000085038D6922F0400243EA850343608461AE
:1033100049688163026230BD002C014030B5036A08
:10332000026A22F4807202624268C46923F4007364
:1033300024F073050C682C438D6843EA05230C4D7B
:10334000A8420ED1CD6823F4006343EA05234D69FA
:1033500022F4405242EA05128D6923F4806342EA66
:1033600005124260C4614968C163036230BD000058
:10337000002C014030B5046A026A22F480520262D5
:103380004268C3690D6823F4E64343EA05238D6868
:1033900024F4005444EA0534064DA84204D14D6992
:1033A00022F4804242EA85124260C36149680164A6
:1033B000046230BD002C014010B5406A0021C18577
:1033C000C184FFF751FB10BD01680C3151E8002F9B
:1033D00022F4907241E80023002BF5D101681431EA
:1033E00051E8002F22F0010241E80023002BF5D123
:1033F000016B012909D101680C3151E8002F22F03D
:10340000100241E80023002BF5D1202180F8421062
:1034100000210163704708B590F84210222901D0BD
:10342000022008BD82684FF480539A4201D101699D
:1034300021B1816A9A421BD04AB10AE00268816ACE
:103440005268C2F308020A80816A891C08E0026996
:1034500072B10268526802F07F020A70816A491CE8
:103460008162C18D491E0904090CC18503D01BE08E
:1034700002685268F1E70168CA6822F02002CA6057
:103480000168CA6822F48072CA6001684A6922F041
:1034900001024A61202180F8421000214163026B41
:1034A000012A03D0FFF7C6FC002008BD01630168B4
:1034B0000C3151E8002F22F0100241E80023002BCC
:1034C000F5D101680A68D20602D50A6849680091F8
:1034D000818DFFF7C8FAE7E770B504460068016917
:1034E000E26821F44051114301612169A068084359
:1034F000616908432168CA6841F20C639A43024338
:10350000CA6020684169A26921F440711143416198
:103510001E492068884202D1FEF78CFE01E0FEF7CA
:1035200079FE00EBC00101EB0012606864218000AD
:10353000B2FBF0F3B3FBF1F36FF018067343B2FB89
:10354000F0F5B2FBF0F605EB8305322303EB05152E
:10355000B5FBF1F5B6FBF1F605F0F00505EB061548
:10356000B2FBF0F6B2FBF0F0B0FBF1F06FF0180236
:10357000504306EB800003EB0010B0FBF1F0216834
:1035800000F00F002844886070BD00000038014042
:1035900081628285C28500214164222180F8421027
:1035A000016921B10168CA6842F48072CA60016889
:1035B0004A6942F001024A610068C16841F0200195
:1035C000C160002070472DE9F843984617460D4624
:1035D0000446089E24E0701C22D0FEF79BFCA0EB62
:1035E0000800B0421AD8CEB12068C168490717D583
:1035F000802D15D0402D13D00168C94309070FD481
:1036000001680025406800902046FFF7DDFE082095
:10361000606484F840500120BDE8F8830320FBE794
:103620002068006835EA000004D00020B842D2D0FB
:103630000020F1E70120F9E70148FFF717BA000081
:103640009C0100200148FFF711BA0000E4010020AE
:10365000FEE7490050EAC12018BF04204A0D18BFF8
:1036600040F0010040F2FF72B2EB515F08BF40F042
:103670000200012808BF052070470907090E00282D
:1036800004DB00F1E02080F80014704700F00F0028
:1036900000F1E02080F8141D704730380A2801D26C
:1036A000012070470020704713B508464FF0FF33E4
:1036B00001226946FFF726FC1CBD70B50E46054683
:1036C000002403E03146FFF7EFFF641C285D00286B
:1036D000F8D170BD96B0FEF72BFCFFF74BFDFFF75E
:1036E000B1FCFFF7DBFC254823494FF4E13500240A
:1036F0000160C0E901540C26C460C0E9044684613D
:10370000C461FFF7E9FA08B172B6FEE71B481C492D
:1037100048380160C0E90154C460C0E904468461CE
:10372000C461FFF7D9FA08B172B6FEE700F040F8BD
:103730001C2214496846FCF76DFF0021684600F022
:1037400057F8114C0F491C2220601C3107A8FCF7C8
:1037500061FF002107A800F04BF80A4960601C22B5
:1037600038310EA8FCF756FF00210EA800F040F8F3
:10377000A06000F038F8FEE700480040E4010020B7
:103780000038014074440008080000200146002071
:10379000842900D0C81C704708B5642800D964206B
:1037A000C9B2002300910246194600F0ABFA08BDE9
:1037B00010B5012205490648FFF72EFB03490122F7
:1037C000BDE81040491C0348FFF726BB0600002057
:1037D0009C010020E401002010B500B9012000F098
:1037E00013FC002010BD10B500F034FC002010BD0B
:1037F0007FB50D4604464169B0F9080081B1A16961
:1038000071B1FFF7C3FFD4E905128DE80700D4E9D1
:1038100000102B46226900F00AFD039004B070BD31
:10382000FFF7B4FF03A9CDE90001208A2B4682B23D
:10383000D4E9001000F0CEFC012801D00020EDE713
:103840000398EBE72DE9F041184C0F460546E66872
:103850002068001D00F010FB38B9206890F82C108B
:1038600001208840216981432161681C07D137B15B
:103870002168BDE8F0410E48091D00F041BB2068F9
:103880003544B5424560216805D2A06BBDE8F041E2
:10389000091D00F01DBB606B091D00F019FBA06A3B
:1038A000854200D2A562BDE8F0810000240000201E
:1038B000A40500202DE9F041054600F02DFB2E4C1B
:1038C000A068401CA06020682C4F10B1606940B314
:1038D0002DE02560A068012829D1002606EB86008E
:1038E00007EB800000F0E6FA761C072EF6D323489B
:1038F0008C3000F0DFFA2148A03000F0DBFA1F48DE
:10390000B43000F0D7FA1D48C83000F0D3FA1B4895
:10391000DC3000F0CFFA19488C3060631430A063BB
:1039200005E02068E96AC06A884200D82560606ABC
:10393000401C6062E96A01202269884010432061CE
:1039400001EB810007EB8000291D00F0D9FA00F09F
:1039500003FB606900280CD02068E96AC06A8842CD
:1039600007D207494FF080500860BFF34F8FBFF375
:103970006F8FBDE8F081000024000020C804002003
:1039800004ED00E010B5044690F8510058B101284C
:103990000CD002280FD0502080F31188BFF34F8F36
:1039A000BFF36F8FFEE7206B00F0EAFA2046BDE818
:1039B000104000F0E5BA10BD10484FF440614207D6
:1039C00006D0C01D0D4920F00700411AC1F5406125
:1039D0000B4A00230144C2E900030839183A21F0D8
:1039E000070111604B600B600B1AC0E90013936074
:1039F0004FF000405360506170470000B805002050
:103A000078000020144E154CA6F1C8074FF08058DE
:103A1000DFF84C9012E000BF00F07EFAF068C56855
:103A2000281D00F029FAA068401EA0606068401EB2
:103A3000606000F091FA2846FFF7A4FF6068002854
:103A4000EAD138680128F9D9C9F80080BFF34F8F4F
:103A5000BFF36F8FF2E700009005002024000020E4
:103A600004ED00E02DE9F0479A46DDE9098481463E
:103A70006FF00303206B03EB82021044089E20F0DA
:103A80000707780707D0502080F31188BFF34F8FC6
:103A9000BFF36F8FFEE7002561B1002023180A5C99
:103AA00083F834200A5C12B1401C1028F6D384F845
:103AB000435001E084F83450072E00D30626E66216
:103AC000C4E91165201D00F000FA04F1180000F0AF
:103AD000FCF92461C6F107006462A061E56484F822
:103AE000505052464946384600F0C0F82060B8F1C0
:103AF000000F01D0C8F80040BDE8F08730B511498B
:103B000000E011460A688242FBD34B685C1884428D
:103B100003D1406818444860084643681C18944222
:103B200009D1084C183C2468A24209D052681A44B2
:103B300042600A6812680260814200D0086030BDAD
:103B40000460F9E7780000200648416B096829B154
:103B5000416BC968C9684968816270474FF0FF319D
:103B6000FAE700002400002008484068401C4FF09D
:103B7000500080F3118804D0BFF34F8FBFF36F8FD5
:103B8000FEE7BFF34F8FBFF36F8FFEE7800000208B
:103B90002DE9F0410546002700F092FA324E3068D8
:103BA00008B9FFF709FF706905424ED1C5B3083562
:103BB00068070ED005F00700C0F10800054468074B
:103BC00007D0502080F31188BFF34F8FBFF36F8F62
:103BD000FEE72DB37068854237D823481830014678
:103BE0000C6801E020460C466168A94202D22168B7
:103BF0000029F7D131688C4227D00768216801601D
:103C000060680837411B10290FD96019420708D096
:103C1000502080F31188BFF34F8FBFF36F8FFEE703
:103C200013E041606560FFF769FF61687068401AE2
:103C30007060B268904200D2B060706901430020A9
:103C4000C4E90001F068401CF06000F081FB7807D7
:103C500007D0502080F31188BFF34F8FBFF36F8FD1
:103C6000FEE73846BDE8F0816000002010B5031F74
:103C70004FF080741C601B1F21F001011960191F97
:103C8000024B0B60143940380A6010BD693B0008D4
:103C900010B500210848FEF78DFE04210648FEF706
:103CA00089FE08210448FEF785FEBDE810400C217E
:103CB0000148FEF77FBE000054010020FFF7E8FF37
:103CC00041F288314620FFF767FD4FF4FA6400BFE8
:103CD000FFF79CF9012806D121464620FFF75CFD3D
:103CE00003A000F0B7F80A20FFF776FDF0E7000028
:103CF0004B65795F4765744E756D2829203D3D20E1
:103D0000310D0A002DE9FE4F0A250C9C0027B4FB5B
:103D1000F5F8C8F1000504EB4504CDE90010A4B2A4
:103D200002943E463D463C4693469A463846814676
:103D3000404539D20198C21BA8EB090092FBF0F173
:103D40003944CFB20099891B91FBF0F13144CEB2D6
:103D5000ABEB050191FBF0F12944CDB2AAEB0401D4
:103D600091FBF0F02044C4B20198874200D9074685
:103D70000098864200D9064658465D4500D905465A
:103D80005046544500D90446314801684F630168E4
:103D90008E630168CD63006804640A20FFF71CFD90
:103DA00009F1010080B2C2E7002012E02848019921
:103DB000026851630268009991630268C2F83CB0DE
:103DC0000068C0F840A00A20FFF706FD09F10100D5
:103DD00080B2029981468842E8D34FF00009DFF8AB
:103DE00070A024E0A8EB090097FBF0F1791ACFB29C
:103DF00096FBF0F1711ACEB295FBF0F194FBF0F066
:103E0000691ACDB2DAF80010201AC4B24F63DAF89A
:103E100000108E63DAF80010CD63DAF80000046455
:103E20000A20FFF7D9FC09F101001FFA80F9C1450A
:103E3000D8D3DAF8002000215163DAF8002091632A
:103E4000DAF80020D163DAF800000164BDE8FE8FE3
:103E5000540100200FB400B599B01BAA68461A9906
:103E6000FCF754FA03496846FFF727FC19B05DF8E0
:103E700014FB0000E4010020D0E9013201699A60DE
:103E8000D0E901235A604A68824201D182684A60BF
:103E9000002202610868401E086008687047000040
:103EA000034B036003F154000860802010607047EA
:103EB0002C02002000F108014FF0FF32C0E901128E
:103EC000C1600161002101607047002101617047FC
:103ED00030B50B685A1C02D000F1080202E00269FA
:103EE00004E02246546825689D42FAD953684B6025
:103EF00099608A60516008610168491C016030BDA9
:103F000042684A6093688B60936859609160086169
:103F10000168491C01607047502080F31188BFF38D
:103F20004F8FBFF36F8F0A494868401C48600128D3
:103F30000CD10848006810F0FF0F07D0502080F324
:103F40001188BFF34F8FBFF36F8FFEE770470000FC
:103F50008000002004ED00E00849486828B1401EB8
:103F6000486001D180F311887047502080F3118898
:103F7000BFF34F8FBFF36F8FFEE70000800000207C
:103F800070B500282AD0164DA0F108046068696950
:103F9000084207D1502080F31188BFF34F8FBFF341
:103FA0006F8FFEE722683AB1502080F31188BFF38B
:103FB0004F8FBFF36F8FFEE78843606000F080F89B
:103FC00060686968084468602046FFF797FD2869C3
:103FD000401C2861BDE8704000F0BAB970BD000017
:103FE000600000204FF0E02000210161816105495F
:103FF0004FF47A720968B1FBF2F1491E4161072161
:10400000016170472000002010B5020014D00F4855
:10401000006B38B1502080F31188BFF34F8FBFF38E
:104020006F8FFEE700F04CF800211046FFF70AFC06
:1040300000F08EF9002807D105494FF08050086044
:10404000BFF34F8FBFF36F8F10BD0000240000201F
:1040500004ED00E010B586B00024039405AA04A97D
:1040600003A80494FFF71CFFDDE903010094CDE9E8
:10407000011000230EA11048059A00F0D8F80F494E
:104080000028C86211D0502080F31188BFF34F8FF1
:10409000BFF36F8F4FF0FF30886201204861CC6022
:1040A00006B0BDE8104000F041B806B010BD0000F9
:1040B00049444C4500000000053A00082400002057
:1040C0000248016B491C0163704700002400002076
:1040D0001448016B11B10121C16170470021C16118
:1040E0000169B1FA81F1C1F11F0101EB81020E49B1
:1040F00051F822306BB101EB820101F108034A68EB
:1041000052684A609A4201D152684A60D16801609F
:104110007047502080F31188BFF34F8FBFF36F8F2C
:10412000FEE7000024000020C80400201CB526493A
:1041300008780190FF20087008788DF800009DF83D
:1041400000009DF8002000F0F000904207D05020C1
:1041500080F31188BFF34F8FBFF36F8FFEE79DF899
:1041600000001A4C00F0500020700720A06005E00D
:104170009DF8002052008DF80020401E9DF8002080
:104180001206F5D4A060032807D0502080F31188D0
:10419000BFF34F8FBFF36F8FFEE74FF44070A06007
:1041A000019808700A48016841F4700101600168D3
:1041B00041F070410160FFF715FF00206060FCF7DF
:1041C0004BF800201CBD000000E400E0800000204F
:1041D00020ED00E02DE9FF5F8346DDE90E8799467B
:1041E00016468A469000FFF7D3FC05001CD05420E9
:1041F000FFF7CEFC040014D00020256384F85100A2
:10420000CDE90240CDE900874B463246514658463B
:10421000FFF728FC2046FFF74DFB012004B0BDE866
:10422000F09F2846FFF7ACFE4FF0FF30F6E7F0B501
:1042300085B0DDE90B640A9DA6B1DCB15427009777
:104240002663022684F85160002604AFCDE90246B9
:10425000CDE90057FFF706FC2046FFF72BFB04983B
:1042600005B0F0BD502080F31188BFF34F8FBFF32E
:104270006F8FFEE7502080F31188BFF34F8FBFF39D
:104280006F8FFEE72DE9F0412F4C0026206B28B1FF
:10429000A069401CA0613046BDE8F081E5686D1C56
:1042A000E56013D1606B006838B1502080F311884D
:1042B000BFF34F8FBFF36F8FFEE7606BA16B61633E
:1042C000A063206A401C2062FFF73EFCA06ADFF872
:1042D0007C80854209D3606B0068A0B1606BC068C8
:1042E000C7687868854211D2A0622068C06A00EB76
:1042F000800158F82100012800D90126E069002832
:10430000C9D00126C7E74FF0FF30EDE7381DFFF7B2
:10431000B3FDB86A18B107F11800FFF7ADFDF96AEF
:104320000120226988401043206101EB810108EBE4
:104330008100391DFFF7E4FDF86A2168C96A8842E7
:10434000C9D30126C7E7000024000020C8040020CC
:104350002DE9F0472C4D00242746286B38B1FFF794
:10436000DBFD286B401E2863286B40B146E05020DF
:1043700080F31188BFF34F8FBFF36F8FFEE7A968FB
:10438000224E0120D1B3A6F1B40980463068E8B1CD
:10439000F068C46804F11800FFF76EFD201DFFF7F8
:1043A0006BFDE06A2A6908FA00F11143296100EB0C
:1043B000800109EB8100211DFFF7A2FDE06A296859
:1043C000C96A8842E2D3C5F81C80DFE70CB1FFF769
:1043D000BBFBAC6944B14646FFF754FF00B1EE6148
:1043E000641EF9D10020A861E86938B108490127A5
:1043F00038070860BFF34F8FBFF36F8FFFF7ACFD37
:104400003846BDE8F0870000240000207C0500202D
:1044100004ED00E010B500290AD00878002807D084
:1044200005487844FCF750F9002801D0002010BD61
:104430000248784410BD00000E0200000602000091
:1044400010B500290AD00878002807D0054878441C
:10445000FCF73AF9002801D0002010BD024878444A
:1044600010BD0000F2020000EA020000FCF7F9BAF9
:10447000FCF76EBD04460008413100080000000052
:1044800000000000800000000000000000000000AC
:10449000F8450008BD3C00080000000000000000D6
:1044A000800000000000000000000000F04500084F
:1044B000FD2F000800000000000000008000000048
:1044C00000000000000000000102020304050607CE
:1044D00008090A0B0C0D0E0F101000000000000060
:1044E00000000102030406070809000000000102A1
:1044F000030430313233343536373839414243449E
:10450000454640305800303132333435363738394B
:104510006162636465664030780004000008000052
:104520000000000000020001000010000000000078
:1045300000000000303132333435363738396162AB
:10454000636465667870003031323334353637381D
:1045500039414243444546585000000002400000A3
:10456000000000A00000000005400000000000C89E
:10457000000000000C4000000000409C0000000013
:10458000194000000020BCBE0000000034400000C4
:10459000BFC91B8E00000004B5400000504BCFD0B7
:1045A0006607E2CF010000006C4100003E8251AA84
:1045B000DFEEA73401000000D9420000DCB5A0E224
:1045C0003A301F97FFFFFFFFB4450000FD25A0C84C
:1045D000E9A3C14FFFFFFFFFFF3F00000000008085
:1045E00000000000FF3F000000000080000000000D
:1045F00048435F3035000000726F626F745F6D6F0B
:104600007665000064656661756C745461736B0057
:104610005C470008000000208C0000002801000812
:10462000E84700088C0000208C21000044010008AD
:104630001001000043000000F8FFFFFF0040404071
:104640004040404040404141414141404040404065
:104650004040404040404040404040404005020211
:1046600002020202020202020202020202202020D0
:10467000202020202020200202020202020290902C
:10468000909090901010101010101010101010102A
:10469000101010101010101002020202020288887E
:1046A000888888880808080808080808080808088A
:1046B0000808080808080808020202024000000072
:1046C00000000000000000000000000000000000EA
:1046D00000000000000000000000000000000000DA
:1046E00000000000000000000000000000000000CA
:1046F00000000000000000000000000000000000BA
:1047000000000000000000000000000000000000A9
:104710000000000000000000000000000000000099
:104720000000000000000000000000000000000089
:104730000000000000000000000000000000000079
:104740001C00000043000000F8FFFFFF0C00000009
:104750000E0000000F0000002E000000000000000E
:104760000000000000000000000000000000000049
:1047700001000000100000000000000000127A009C
:104780000000000000000000000000000000000029
:104790000000000000000000000000000000000019
:1047A0000000000000000000000000000000000009
:1047B00000000000000000000000000000000000F9
:1047C00000000000000000000000000000000000E9
:1047D00000000000000000000000000000000000D9
:0847E000AAAAAAAA0000000029
:04000005080000ED02
:00000001FF
